{
  "contractName": "Ballot",
  "abi": [
    {
      "inputs": [],
      "payable": false,
      "stateMutability": "nonpayable",
      "type": "constructor"
    },
    {
      "constant": true,
      "inputs": [],
      "name": "contractOwner",
      "outputs": [
        {
          "internalType": "address",
          "name": "",
          "type": "address"
        }
      ],
      "payable": false,
      "stateMutability": "view",
      "type": "function"
    },
    {
      "constant": true,
      "inputs": [],
      "name": "viewContractOwner",
      "outputs": [
        {
          "internalType": "address",
          "name": "",
          "type": "address"
        }
      ],
      "payable": false,
      "stateMutability": "view",
      "type": "function"
    },
    {
      "constant": true,
      "inputs": [
        {
          "internalType": "string",
          "name": "_electionId",
          "type": "string"
        },
        {
          "internalType": "address",
          "name": "_voterAddress",
          "type": "address"
        }
      ],
      "name": "showMyVote",
      "outputs": [
        {
          "internalType": "address",
          "name": "voterAddress",
          "type": "address"
        },
        {
          "internalType": "uint256",
          "name": "voterWeight",
          "type": "uint256"
        },
        {
          "internalType": "bool",
          "name": "voterVoted",
          "type": "bool"
        },
        {
          "internalType": "address",
          "name": "voterSelectedCandidate",
          "type": "address"
        }
      ],
      "payable": false,
      "stateMutability": "view",
      "type": "function"
    },
    {
      "constant": true,
      "inputs": [
        {
          "internalType": "string",
          "name": "_electionId",
          "type": "string"
        },
        {
          "internalType": "address",
          "name": "_candidateAddress",
          "type": "address"
        }
      ],
      "name": "showResultCount",
      "outputs": [
        {
          "internalType": "address",
          "name": "candidateAddress",
          "type": "address"
        },
        {
          "internalType": "uint256",
          "name": "candidateVoteCount",
          "type": "uint256"
        }
      ],
      "payable": false,
      "stateMutability": "view",
      "type": "function"
    },
    {
      "constant": false,
      "inputs": [
        {
          "internalType": "string",
          "name": "_electionId",
          "type": "string"
        }
      ],
      "name": "createElection",
      "outputs": [],
      "payable": false,
      "stateMutability": "nonpayable",
      "type": "function"
    },
    {
      "constant": false,
      "inputs": [
        {
          "internalType": "string",
          "name": "_electionId",
          "type": "string"
        },
        {
          "internalType": "address[]",
          "name": "_candidateAddress",
          "type": "address[]"
        }
      ],
      "name": "addCandidate",
      "outputs": [],
      "payable": false,
      "stateMutability": "nonpayable",
      "type": "function"
    },
    {
      "constant": false,
      "inputs": [
        {
          "internalType": "string",
          "name": "_electionId",
          "type": "string"
        },
        {
          "internalType": "address[]",
          "name": "_candidateAddress",
          "type": "address[]"
        }
      ],
      "name": "createElectionWithCandidates",
      "outputs": [],
      "payable": false,
      "stateMutability": "nonpayable",
      "type": "function"
    },
    {
      "constant": false,
      "inputs": [
        {
          "internalType": "string",
          "name": "_electionId",
          "type": "string"
        },
        {
          "internalType": "address[]",
          "name": "_voterAddress",
          "type": "address[]"
        }
      ],
      "name": "addParticipant",
      "outputs": [],
      "payable": false,
      "stateMutability": "nonpayable",
      "type": "function"
    },
    {
      "constant": false,
      "inputs": [
        {
          "internalType": "string",
          "name": "_electionId",
          "type": "string"
        }
      ],
      "name": "endElection",
      "outputs": [],
      "payable": false,
      "stateMutability": "nonpayable",
      "type": "function"
    },
    {
      "constant": false,
      "inputs": [
        {
          "internalType": "string",
          "name": "_electionId",
          "type": "string"
        },
        {
          "internalType": "address",
          "name": "_candidateAddress",
          "type": "address"
        },
        {
          "internalType": "address",
          "name": "_voterAddress",
          "type": "address"
        }
      ],
      "name": "vote",
      "outputs": [],
      "payable": false,
      "stateMutability": "nonpayable",
      "type": "function"
    }
  ],
  "bytecode": "0x608060405234801561001057600080fd5b50336000806101000a81548173ffffffffffffffffffffffffffffffffffffffff021916908373ffffffffffffffffffffffffffffffffffffffff1602179055506126e8806100606000396000f3fe608060405234801561001057600080fd5b506004361061009e5760003560e01c8063cdc00fdb11610066578063cdc00fdb14610541578063ce606ee014610690578063d2ad9b75146106da578063f441b547146107fc578063fe43bc071461095c5761009e565b806315cf4a5f146100a357806350bc016e1461015e57806379c0e203146102ad578063b8e0b6b2146103a8578063c9a05bc0146104f7575b600080fd5b61015c600480360360208110156100b957600080fd5b81019080803590602001906401000000008111156100d657600080fd5b8201836020820111156100e857600080fd5b8035906020019184600183028401116401000000008311171561010a57600080fd5b91908080601f016020809104026020016040519081016040528093929190818152602001838380828437600081840152601f19601f820116905080830192505050505050509192919290505050610a17565b005b6102ab6004803603604081101561017457600080fd5b810190808035906020019064010000000081111561019157600080fd5b8201836020820111156101a357600080fd5b803590602001918460018302840111640100000000831117156101c557600080fd5b91908080601f016020809104026020016040519081016040528093929190818152602001838380828437600081840152601f19601f8201169050808301925050505050505091929192908035906020019064010000000081111561022857600080fd5b82018360208201111561023a57600080fd5b8035906020019184602083028401116401000000008311171561025c57600080fd5b919080806020026020016040519081016040528093929190818152602001838360200280828437600081840152601f19601f820116905080830192505050505050509192919290505050610bca565b005b6103a6600480360360608110156102c357600080fd5b81019080803590602001906401000000008111156102e057600080fd5b8201836020820111156102f257600080fd5b8035906020019184600183028401116401000000008311171561031457600080fd5b91908080601f016020809104026020016040519081016040528093929190818152602001838380828437600081840152601f19601f820116905080830192505050505050509192919290803573ffffffffffffffffffffffffffffffffffffffff169060200190929190803573ffffffffffffffffffffffffffffffffffffffff169060200190929190505050611162565b005b6104f5600480360360408110156103be57600080fd5b81019080803590602001906401000000008111156103db57600080fd5b8201836020820111156103ed57600080fd5b8035906020019184600183028401116401000000008311171561040f57600080fd5b91908080601f016020809104026020016040519081016040528093929190818152602001838380828437600081840152601f19601f8201169050808301925050505050505091929192908035906020019064010000000081111561047257600080fd5b82018360208201111561048457600080fd5b803590602001918460208302840111640100000000831117156104a657600080fd5b919080806020026020016040519081016040528093929190818152602001838360200280828437600081840152601f19601f82011690508083019250505050505050919291929050505061185e565b005b6104ff611b8c565b604051808273ffffffffffffffffffffffffffffffffffffffff1673ffffffffffffffffffffffffffffffffffffffff16815260200191505060405180910390f35b61068e6004803603604081101561055757600080fd5b810190808035906020019064010000000081111561057457600080fd5b82018360208201111561058657600080fd5b803590602001918460018302840111640100000000831117156105a857600080fd5b91908080601f016020809104026020016040519081016040528093929190818152602001838380828437600081840152601f19601f8201169050808301925050505050505091929192908035906020019064010000000081111561060b57600080fd5b82018360208201111561061d57600080fd5b8035906020019184602083028401116401000000008311171561063f57600080fd5b919080806020026020016040519081016040528093929190818152602001838360200280828437600081840152601f19601f820116905080830192505050505050509192919290505050611bb5565b005b610698611e97565b604051808273ffffffffffffffffffffffffffffffffffffffff1673ffffffffffffffffffffffffffffffffffffffff16815260200191505060405180910390f35b6107b3600480360360408110156106f057600080fd5b810190808035906020019064010000000081111561070d57600080fd5b82018360208201111561071f57600080fd5b8035906020019184600183028401116401000000008311171561074157600080fd5b91908080601f016020809104026020016040519081016040528093929190818152602001838380828437600081840152601f19601f820116905080830192505050505050509192919290803573ffffffffffffffffffffffffffffffffffffffff169060200190929190505050611ebc565b604051808373ffffffffffffffffffffffffffffffffffffffff1673ffffffffffffffffffffffffffffffffffffffff1681526020018281526020019250505060405180910390f35b6108d56004803603604081101561081257600080fd5b810190808035906020019064010000000081111561082f57600080fd5b82018360208201111561084157600080fd5b8035906020019184600183028401116401000000008311171561086357600080fd5b91908080601f016020809104026020016040519081016040528093929190818152602001838380828437600081840152601f19601f820116905080830192505050505050509192919290803573ffffffffffffffffffffffffffffffffffffffff169060200190929190505050612044565b604051808573ffffffffffffffffffffffffffffffffffffffff1673ffffffffffffffffffffffffffffffffffffffff168152602001848152602001831515151581526020018273ffffffffffffffffffffffffffffffffffffffff1673ffffffffffffffffffffffffffffffffffffffff16815260200194505050505060405180910390f35b610a156004803603602081101561097257600080fd5b810190808035906020019064010000000081111561098f57600080fd5b8201836020820111156109a157600080fd5b803590602001918460018302840111640100000000831117156109c357600080fd5b91908080601f016020809104026020016040519081016040528093929190818152602001838380828437600081840152601f19601f8201169050808301925050505050505091929192905050506123fd565b005b806001826040518082805190602001908083835b60208310610a4e5780518252602082019150602081019050602083039250610a2b565b6001836020036101000a03801982511681845116808217855250505050505090500191505090815260200160405180910390206000019080519060200190610a97929190612595565b50336001826040518082805190602001908083835b60208310610acf5780518252602082019150602081019050602083039250610aac565b6001836020036101000a038019825116818451168082178552505050505050905001915050908152602001604051809103902060010160016101000a81548173ffffffffffffffffffffffffffffffffffffffff021916908373ffffffffffffffffffffffffffffffffffffffff160217905550600180826040518082805190602001908083835b60208310610b7a5780518252602082019150602081019050602083039250610b57565b6001836020036101000a038019825116818451168082178552505050505050905001915050908152602001604051809103902060010160006101000a81548160ff02191690831515021790555050565b3373ffffffffffffffffffffffffffffffffffffffff166001836040518082805190602001908083835b60208310610c175780518252602082019150602081019050602083039250610bf4565b6001836020036101000a038019825116818451168082178552505050505050905001915050908152602001604051809103902060010160019054906101000a900473ffffffffffffffffffffffffffffffffffffffff1673ffffffffffffffffffffffffffffffffffffffff1614610cda576040517f08c379a000000000000000000000000000000000000000000000000000000000815260040180806020018281038252602b815260200180612667602b913960400191505060405180910390fd5b6001826040518082805190602001908083835b60208310610d105780518252602082019150602081019050602083039250610ced565b6001836020036101000a038019825116818451168082178552505050505050905001915050908152602001604051809103902060010160009054906101000a900460ff16610dc6576040517f08c379a000000000000000000000000000000000000000000000000000000000815260040180806020018281038252601b8152602001807f456c656374696f6e20506572696f64652048617320456e64656421000000000081525060200191505060405180910390fd5b60008090505b815181101561115d5760006001846040518082805190602001908083835b60208310610e0d5780518252602082019150602081019050602083039250610dea565b6001836020036101000a03801982511681845116808217855250505050505090500191505090815260200160405180910390206003016000848481518110610e5157fe5b602002602001015173ffffffffffffffffffffffffffffffffffffffff1673ffffffffffffffffffffffffffffffffffffffff1681526020019081526020016000206001015411158015610f755750600015156001846040518082805190602001908083835b60208310610eda5780518252602082019150602081019050602083039250610eb7565b6001836020036101000a03801982511681845116808217855250505050505090500191505090815260200160405180910390206003016000848481518110610f1e57fe5b602002602001015173ffffffffffffffffffffffffffffffffffffffff1673ffffffffffffffffffffffffffffffffffffffff16815260200190815260200160002060020160009054906101000a900460ff161515145b1561115057818181518110610f8657fe5b60200260200101516001846040518082805190602001908083835b60208310610fc45780518252602082019150602081019050602083039250610fa1565b6001836020036101000a0380198251168184511680821785525050505050509050019150509081526020016040518091039020600301600084848151811061100857fe5b602002602001015173ffffffffffffffffffffffffffffffffffffffff1673ffffffffffffffffffffffffffffffffffffffff16815260200190815260200160002060000160006101000a81548173ffffffffffffffffffffffffffffffffffffffff021916908373ffffffffffffffffffffffffffffffffffffffff160217905550600180846040518082805190602001908083835b602083106110c2578051825260208201915060208101905060208303925061109f565b6001836020036101000a0380198251168184511680821785525050505050509050019150509081526020016040518091039020600301600084848151811061110657fe5b602002602001015173ffffffffffffffffffffffffffffffffffffffff1673ffffffffffffffffffffffffffffffffffffffff168152602001908152602001600020600101819055505b8080600101915050610dcc565b505050565b6001836040518082805190602001908083835b602083106111985780518252602082019150602081019050602083039250611175565b6001836020036101000a038019825116818451168082178552505050505050905001915050908152602001604051809103902060010160009054906101000a900460ff1661124e576040517f08c379a000000000000000000000000000000000000000000000000000000000815260040180806020018281038252601b8152602001807f456c656374696f6e20506572696f64652048617320456e64656421000000000081525060200191505060405180910390fd5b3373ffffffffffffffffffffffffffffffffffffffff168173ffffffffffffffffffffffffffffffffffffffff16146112ef576040517f08c379a00000000000000000000000000000000000000000000000000000000081526004018080602001828103825260188152602001807f54686973204973204e6f7420596f75722042616c6c6f7421000000000000000081525060200191505060405180910390fd5b60006001846040518082805190602001908083835b602083106113275780518252602082019150602081019050602083039250611304565b6001836020036101000a038019825116818451168082178552505050505050905001915050908152602001604051809103902060030160008373ffffffffffffffffffffffffffffffffffffffff1673ffffffffffffffffffffffffffffffffffffffff1681526020019081526020016000206001015411611411576040517f08c379a00000000000000000000000000000000000000000000000000000000081526004018080602001828103825260178152602001807f596f7520417265204e6f7420526567697374657265642100000000000000000081525060200191505060405180910390fd5b600015156001846040518082805190602001908083835b6020831061144b5780518252602082019150602081019050602083039250611428565b6001836020036101000a038019825116818451168082178552505050505050905001915050908152602001604051809103902060030160008373ffffffffffffffffffffffffffffffffffffffff1673ffffffffffffffffffffffffffffffffffffffff16815260200190815260200160002060020160009054906101000a900460ff16151514611544576040517f08c379a00000000000000000000000000000000000000000000000000000000081526004018080602001828103825260128152602001807f596f7520416c726561647920566f74656421000000000000000000000000000081525060200191505060405180910390fd5b600180846040518082805190602001908083835b6020831061157b5780518252602082019150602081019050602083039250611558565b6001836020036101000a038019825116818451168082178552505050505050905001915050908152602001604051809103902060030160008373ffffffffffffffffffffffffffffffffffffffff1673ffffffffffffffffffffffffffffffffffffffff16815260200190815260200160002060020160006101000a81548160ff021916908315150217905550816001846040518082805190602001908083835b6020831061163f578051825260208201915060208101905060208303925061161c565b6001836020036101000a038019825116818451168082178552505050505050905001915050908152602001604051809103902060030160008373ffffffffffffffffffffffffffffffffffffffff1673ffffffffffffffffffffffffffffffffffffffff16815260200190815260200160002060020160016101000a81548173ffffffffffffffffffffffffffffffffffffffff021916908373ffffffffffffffffffffffffffffffffffffffff1602179055506001836040518082805190602001908083835b602083106117295780518252602082019150602081019050602083039250611706565b6001836020036101000a038019825116818451168082178552505050505050905001915050908152602001604051809103902060030160008273ffffffffffffffffffffffffffffffffffffffff1673ffffffffffffffffffffffffffffffffffffffff168152602001908152602001600020600101546001846040518082805190602001908083835b602083106117d657805182526020820191506020810190506020830392506117b3565b6001836020036101000a038019825116818451168082178552505050505050905001915050908152602001604051809103902060020160008473ffffffffffffffffffffffffffffffffffffffff1673ffffffffffffffffffffffffffffffffffffffff16815260200190815260200160002060010160008282540192505081905550505050565b3373ffffffffffffffffffffffffffffffffffffffff166001836040518082805190602001908083835b602083106118ab5780518252602082019150602081019050602083039250611888565b6001836020036101000a038019825116818451168082178552505050505050905001915050908152602001604051809103902060010160019054906101000a900473ffffffffffffffffffffffffffffffffffffffff1673ffffffffffffffffffffffffffffffffffffffff161461196e576040517f08c379a000000000000000000000000000000000000000000000000000000000815260040180806020018281038252602c81526020018061263b602c913960400191505060405180910390fd5b6001826040518082805190602001908083835b602083106119a45780518252602082019150602081019050602083039250611981565b6001836020036101000a038019825116818451168082178552505050505050905001915050908152602001604051809103902060010160009054906101000a900460ff16611a5a576040517f08c379a000000000000000000000000000000000000000000000000000000000815260040180806020018281038252601b8152602001807f456c656374696f6e20506572696f64652048617320456e64656421000000000081525060200191505060405180910390fd5b60008090505b8151811015611b8757818181518110611a7557fe5b60200260200101516001846040518082805190602001908083835b60208310611ab35780518252602082019150602081019050602083039250611a90565b6001836020036101000a03801982511681845116808217855250505050505090500191505090815260200160405180910390206002016000848481518110611af757fe5b602002602001015173ffffffffffffffffffffffffffffffffffffffff1673ffffffffffffffffffffffffffffffffffffffff16815260200190815260200160002060000160006101000a81548173ffffffffffffffffffffffffffffffffffffffff021916908373ffffffffffffffffffffffffffffffffffffffff1602179055508080600101915050611a60565b505050565b60008060009054906101000a900473ffffffffffffffffffffffffffffffffffffffff16905090565b816001836040518082805190602001908083835b60208310611bec5780518252602082019150602081019050602083039250611bc9565b6001836020036101000a03801982511681845116808217855250505050505090500191505090815260200160405180910390206000019080519060200190611c35929190612595565b50336001836040518082805190602001908083835b60208310611c6d5780518252602082019150602081019050602083039250611c4a565b6001836020036101000a038019825116818451168082178552505050505050905001915050908152602001604051809103902060010160016101000a81548173ffffffffffffffffffffffffffffffffffffffff021916908373ffffffffffffffffffffffffffffffffffffffff160217905550600180836040518082805190602001908083835b60208310611d185780518252602082019150602081019050602083039250611cf5565b6001836020036101000a038019825116818451168082178552505050505050905001915050908152602001604051809103902060010160006101000a81548160ff02191690831515021790555060008090505b8151811015611e9257818181518110611d8057fe5b60200260200101516001846040518082805190602001908083835b60208310611dbe5780518252602082019150602081019050602083039250611d9b565b6001836020036101000a03801982511681845116808217855250505050505090500191505090815260200160405180910390206002016000848481518110611e0257fe5b602002602001015173ffffffffffffffffffffffffffffffffffffffff1673ffffffffffffffffffffffffffffffffffffffff16815260200190815260200160002060000160006101000a81548173ffffffffffffffffffffffffffffffffffffffff021916908373ffffffffffffffffffffffffffffffffffffffff1602179055508080600101915050611d6b565b505050565b6000809054906101000a900473ffffffffffffffffffffffffffffffffffffffff1681565b6000806001846040518082805190602001908083835b60208310611ef55780518252602082019150602081019050602083039250611ed2565b6001836020036101000a038019825116818451168082178552505050505050905001915050908152602001604051809103902060020160008473ffffffffffffffffffffffffffffffffffffffff1673ffffffffffffffffffffffffffffffffffffffff16815260200190815260200160002060000160009054906101000a900473ffffffffffffffffffffffffffffffffffffffff166001856040518082805190602001908083835b60208310611fc25780518252602082019150602081019050602083039250611f9f565b6001836020036101000a038019825116818451168082178552505050505050905001915050908152602001604051809103902060020160008573ffffffffffffffffffffffffffffffffffffffff1673ffffffffffffffffffffffffffffffffffffffff16815260200190815260200160002060010154915091509250929050565b6000806000803373ffffffffffffffffffffffffffffffffffffffff168573ffffffffffffffffffffffffffffffffffffffff16146120eb576040517f08c379a00000000000000000000000000000000000000000000000000000000081526004018080602001828103825260188152602001807f54686973204973204e6f7420596f75722042616c6c6f7421000000000000000081525060200191505060405180910390fd5b6001866040518082805190602001908083835b6020831061212157805182526020820191506020810190506020830392506120fe565b6001836020036101000a038019825116818451168082178552505050505050905001915050908152602001604051809103902060030160008673ffffffffffffffffffffffffffffffffffffffff1673ffffffffffffffffffffffffffffffffffffffff16815260200190815260200160002060000160009054906101000a900473ffffffffffffffffffffffffffffffffffffffff166001876040518082805190602001908083835b602083106121ee57805182526020820191506020810190506020830392506121cb565b6001836020036101000a038019825116818451168082178552505050505050905001915050908152602001604051809103902060030160008773ffffffffffffffffffffffffffffffffffffffff1673ffffffffffffffffffffffffffffffffffffffff168152602001908152602001600020600101546001886040518082805190602001908083835b6020831061229b5780518252602082019150602081019050602083039250612278565b6001836020036101000a038019825116818451168082178552505050505050905001915050908152602001604051809103902060030160008873ffffffffffffffffffffffffffffffffffffffff1673ffffffffffffffffffffffffffffffffffffffff16815260200190815260200160002060020160009054906101000a900460ff166001896040518082805190602001908083835b602083106123555780518252602082019150602081019050602083039250612332565b6001836020036101000a038019825116818451168082178552505050505050905001915050908152602001604051809103902060030160008973ffffffffffffffffffffffffffffffffffffffff1673ffffffffffffffffffffffffffffffffffffffff16815260200190815260200160002060020160019054906101000a900473ffffffffffffffffffffffffffffffffffffffff16935093509350935092959194509250565b3373ffffffffffffffffffffffffffffffffffffffff166001826040518082805190602001908083835b6020831061244a5780518252602082019150602081019050602083039250612427565b6001836020036101000a038019825116818451168082178552505050505050905001915050908152602001604051809103902060010160019054906101000a900473ffffffffffffffffffffffffffffffffffffffff1673ffffffffffffffffffffffffffffffffffffffff161461250d576040517f08c379a00000000000000000000000000000000000000000000000000000000081526004018080602001828103825260228152602001806126926022913960400191505060405180910390fd5b60006001826040518082805190602001908083835b602083106125455780518252602082019150602081019050602083039250612522565b6001836020036101000a038019825116818451168082178552505050505050905001915050908152602001604051809103902060010160006101000a81548160ff02191690831515021790555050565b828054600181600116156101000203166002900490600052602060002090601f016020900481019282601f106125d657805160ff1916838001178555612604565b82800160010185558215612604579182015b828111156126035782518255916020019190600101906125e8565b5b5090506126119190612615565b5090565b61263791905b8082111561263357600081600090555060010161261b565b5090565b9056fe4f6e6c7920456c656374696f6e2043726561746f722043616e20416464204e65772043616e646964617465214f6e6c7920456c656374696f6e2043726561746f722043616e20416464205061727469636970616e7473214f6e6c7920456c656374696f6e2043726561746f722043616e20446f205468697321a265627a7a72315820f354672ad38d12270c72ce575ebe59c609ba35222dc48c5d386f4f38e78b103e64736f6c63430005100032",
  "source": "pragma solidity >=0.4.21 <0.7.0;\r\n\r\n/// @author Basilius Bias Astho Christyono\r\ncontract Ballot {\r\n\r\n  struct Voter {\r\n    address voterAddress;\r\n    uint voterWeight;\r\n    bool voterVoted;\r\n    address voterSelectedCandidate;\r\n  }\r\n\r\n  struct Candidate {\r\n    address candidateAddress;\r\n    uint candidateVoteCount;\r\n  }\r\n\r\n  struct Election {\r\n    string electionId;\r\n    bool electionIsActive;\r\n    address electionCreator;\r\n    mapping(address => Candidate) electionCandidates;\r\n    mapping(address => Voter) electionParticipants;\r\n  }\r\n\r\n  address public contractOwner;\r\n  mapping(string => Election) elections;\r\n\r\n  constructor() public {\r\n    contractOwner = msg.sender;\r\n  }\r\n\r\n  /* Getter */\r\n\r\n  /// View Contract Owner\r\n  function viewContractOwner() public view returns (address) {\r\n    return contractOwner;\r\n  }\r\n\r\n  /// Registered User Show Their Voted Candidate Secretly\r\n  function showMyVote(string memory _electionId, address _voterAddress) public view returns (\r\n    address voterAddress, uint voterWeight, bool voterVoted, address voterSelectedCandidate\r\n  ) {\r\n    require(_voterAddress == msg.sender, \"This Is Not Your Ballot!\");\r\n    return (\r\n      elections[_electionId].electionParticipants[_voterAddress].voterAddress,\r\n      elections[_electionId].electionParticipants[_voterAddress].voterWeight,\r\n      elections[_electionId].electionParticipants[_voterAddress].voterVoted,\r\n      elections[_electionId].electionParticipants[_voterAddress].voterSelectedCandidate\r\n    );\r\n  }\r\n\r\n  /// View Current Candidate Voted Count\r\n  function showResultCount(string memory _electionId, address _candidateAddress) public view returns (\r\n    address candidateAddress, uint candidateVoteCount\r\n  ) {\r\n    return (\r\n      elections[_electionId].electionCandidates[_candidateAddress].candidateAddress,\r\n      elections[_electionId].electionCandidates[_candidateAddress].candidateVoteCount\r\n    );\r\n  }\r\n\r\n  /* Setter */\r\n\r\n  /// Admin Create New Election\r\n  function createElection(string memory _electionId) public {\r\n    // require(contractOwner == msg.sender, \"Only Contract Owner Can Create Election!\");\r\n    elections[_electionId].electionId = _electionId;\r\n    elections[_electionId].electionCreator = msg.sender;\r\n    elections[_electionId].electionIsActive = true;\r\n  }\r\n\r\n  /// Admin Add New Some Candidate In Specific Election\r\n  function addCandidate(string memory _electionId, address[] memory _candidateAddress) public {\r\n    require(elections[_electionId].electionCreator == msg.sender, \"Only Election Creator Can Add New Candidate!\");\r\n    require(elections[_electionId].electionIsActive, \"Election Periode Has Ended!\");\r\n    for (uint i = 0; i < _candidateAddress.length; i++) {\r\n      elections[_electionId].electionCandidates[_candidateAddress[i]].candidateAddress = _candidateAddress[i];\r\n    }\r\n  }\r\n\r\n  /// Admin Create New Election With Add Candidates\r\n  function createElectionWithCandidates(string memory _electionId, address[] memory _candidateAddress) public {\r\n    // require(contractOwner == msg.sender, \"Only Contract Owner Can Create Election!\");\r\n    elections[_electionId].electionId = _electionId;\r\n    elections[_electionId].electionCreator = msg.sender;\r\n    elections[_electionId].electionIsActive = true;\r\n    for (uint i = 0; i < _candidateAddress.length; i++) {\r\n      elections[_electionId].electionCandidates[_candidateAddress[i]].candidateAddress = _candidateAddress[i];\r\n    }\r\n  }\r\n\r\n  // Admin Add New Voter Participant In Specific Election And Give 1 Ballot\r\n  function addParticipant(string memory _electionId, address[] memory _voterAddress) public {\r\n    require(elections[_electionId].electionCreator == msg.sender, \"Only Election Creator Can Add Participants!\");\r\n    require(elections[_electionId].electionIsActive, \"Election Periode Has Ended!\");\r\n    for (uint i = 0; i < _voterAddress.length; i++) {\r\n      if (\r\n        elections[_electionId].electionParticipants[_voterAddress[i]].voterWeight <= 0 &&\r\n        elections[_electionId].electionParticipants[_voterAddress[i]].voterVoted == false\r\n      ) {\r\n        elections[_electionId].electionParticipants[_voterAddress[i]].voterAddress = _voterAddress[i];\r\n        elections[_electionId].electionParticipants[_voterAddress[i]].voterWeight = 1;\r\n      }\r\n    }\r\n  }\r\n\r\n  /// Admin Stop Election Periode\r\n  function endElection(string memory _electionId) public {\r\n    require(elections[_electionId].electionCreator == msg.sender, \"Only Election Creator Can Do This!\");\r\n    elections[_electionId].electionIsActive = false;\r\n  }\r\n\r\n  /// Registered User Participant Voting Some Candidate\r\n  function vote(string memory _electionId, address _candidateAddress, address _voterAddress) public {\r\n    require(elections[_electionId].electionIsActive, \"Election Periode Has Ended!\");\r\n    require(_voterAddress == msg.sender, \"This Is Not Your Ballot!\");\r\n    require(elections[_electionId].electionParticipants[_voterAddress].voterWeight > 0, \"You Are Not Registered!\");\r\n    require(elections[_electionId].electionParticipants[_voterAddress].voterVoted == false, \"You Already Voted!\");\r\n    elections[_electionId].electionParticipants[_voterAddress].voterVoted = true;\r\n    elections[_electionId].electionParticipants[_voterAddress].voterSelectedCandidate = _candidateAddress;\r\n    elections[_electionId].electionCandidates[_candidateAddress].candidateVoteCount += elections[_electionId].electionParticipants[_voterAddress].voterWeight;\r\n  }\r\n\r\n}\r\n",
  "sourcePath": "D:\\Skripsi\\blockchain-evoting\\contract\\contracts\\Ballot.sol",
  "compiler": {
    "name": "solc",
    "version": "0.5.16+commit.9c3226ce.Emscripten.clang"
  },
  "schemaVersion": "3.0.23",
  "updatedAt": "2020-05-18T06:10:19.178Z",
  "devdoc": {
    "author": "Basilius Bias Astho Christyono",
    "methods": {}
  },
  "userdoc": {
    "methods": {
      "addCandidate(string,address[])": {
        "notice": "Admin Add New Some Candidate In Specific Election"
      },
      "createElection(string)": {
        "notice": "Admin Create New Election"
      },
      "createElectionWithCandidates(string,address[])": {
        "notice": "Admin Create New Election With Add Candidates"
      },
      "endElection(string)": {
        "notice": "Admin Stop Election Periode"
      },
      "showMyVote(string,address)": {
        "notice": "Registered User Show Their Voted Candidate Secretly"
      },
      "showResultCount(string,address)": {
        "notice": "View Current Candidate Voted Count"
      },
      "viewContractOwner()": {
        "notice": "View Contract Owner"
      },
      "vote(string,address,address)": {
        "notice": "Registered User Participant Voting Some Candidate"
      }
    }
  }
}