{
  "contractName": "Ballot",
  "abi": [
    {
      "inputs": [],
      "payable": false,
      "stateMutability": "nonpayable",
      "type": "constructor"
    },
    {
      "constant": true,
      "inputs": [],
      "name": "contractOwner",
      "outputs": [
        {
          "internalType": "address",
          "name": "",
          "type": "address"
        }
      ],
      "payable": false,
      "stateMutability": "view",
      "type": "function"
    },
    {
      "constant": true,
      "inputs": [],
      "name": "viewContractOwner",
      "outputs": [
        {
          "internalType": "address",
          "name": "",
          "type": "address"
        }
      ],
      "payable": false,
      "stateMutability": "view",
      "type": "function"
    },
    {
      "constant": true,
      "inputs": [
        {
          "internalType": "string",
          "name": "_electionId",
          "type": "string"
        },
        {
          "internalType": "address",
          "name": "_voterAddress",
          "type": "address"
        }
      ],
      "name": "showMyVote",
      "outputs": [
        {
          "internalType": "string",
          "name": "voterName",
          "type": "string"
        },
        {
          "internalType": "address",
          "name": "voterAddress",
          "type": "address"
        },
        {
          "internalType": "uint256",
          "name": "voterWeight",
          "type": "uint256"
        },
        {
          "internalType": "bool",
          "name": "voterVoted",
          "type": "bool"
        },
        {
          "internalType": "address",
          "name": "voterSelectedCandidate",
          "type": "address"
        }
      ],
      "payable": false,
      "stateMutability": "view",
      "type": "function"
    },
    {
      "constant": true,
      "inputs": [
        {
          "internalType": "string",
          "name": "_electionId",
          "type": "string"
        },
        {
          "internalType": "address",
          "name": "_candidateAddress",
          "type": "address"
        }
      ],
      "name": "showResultCount",
      "outputs": [
        {
          "internalType": "string",
          "name": "candidateName",
          "type": "string"
        },
        {
          "internalType": "address",
          "name": "candidateAddress",
          "type": "address"
        },
        {
          "internalType": "uint256",
          "name": "candidateVoteCount",
          "type": "uint256"
        }
      ],
      "payable": false,
      "stateMutability": "view",
      "type": "function"
    },
    {
      "constant": false,
      "inputs": [
        {
          "internalType": "string",
          "name": "_electionId",
          "type": "string"
        },
        {
          "internalType": "string",
          "name": "_electionName",
          "type": "string"
        }
      ],
      "name": "createElection",
      "outputs": [],
      "payable": false,
      "stateMutability": "nonpayable",
      "type": "function"
    },
    {
      "constant": false,
      "inputs": [
        {
          "internalType": "string",
          "name": "_electionId",
          "type": "string"
        },
        {
          "internalType": "string",
          "name": "_candidateName",
          "type": "string"
        },
        {
          "internalType": "address",
          "name": "_candidateAddress",
          "type": "address"
        }
      ],
      "name": "addCandidate",
      "outputs": [],
      "payable": false,
      "stateMutability": "nonpayable",
      "type": "function"
    },
    {
      "constant": false,
      "inputs": [
        {
          "internalType": "string",
          "name": "_electionId",
          "type": "string"
        },
        {
          "internalType": "string",
          "name": "_voterName",
          "type": "string"
        },
        {
          "internalType": "address",
          "name": "_voterAddress",
          "type": "address"
        }
      ],
      "name": "addParticipant",
      "outputs": [],
      "payable": false,
      "stateMutability": "nonpayable",
      "type": "function"
    },
    {
      "constant": false,
      "inputs": [
        {
          "internalType": "string",
          "name": "_electionId",
          "type": "string"
        }
      ],
      "name": "endElection",
      "outputs": [],
      "payable": false,
      "stateMutability": "nonpayable",
      "type": "function"
    },
    {
      "constant": false,
      "inputs": [
        {
          "internalType": "string",
          "name": "_electionId",
          "type": "string"
        },
        {
          "internalType": "address",
          "name": "_candidateAddress",
          "type": "address"
        },
        {
          "internalType": "address",
          "name": "_voterAddress",
          "type": "address"
        }
      ],
      "name": "vote",
      "outputs": [],
      "payable": false,
      "stateMutability": "nonpayable",
      "type": "function"
    }
  ],
  "bytecode": "0x608060405234801561001057600080fd5b50336000806101000a81548173ffffffffffffffffffffffffffffffffffffffff021916908373ffffffffffffffffffffffffffffffffffffffff160217905550612997806100606000396000f3fe608060405234801561001057600080fd5b50600436106100935760003560e01c8063c9a05bc011610066578063c9a05bc0146105c9578063ce606ee014610613578063d2ad9b751461065d578063f441b547146107eb578063fe43bc07146109b757610093565b80630b32ff77146100985780634f543b061461020a57806379c0e2031461037c578063bd27eca014610477575b600080fd5b610208600480360360608110156100ae57600080fd5b81019080803590602001906401000000008111156100cb57600080fd5b8201836020820111156100dd57600080fd5b803590602001918460018302840111640100000000831117156100ff57600080fd5b91908080601f016020809104026020016040519081016040528093929190818152602001838380828437600081840152601f19601f8201169050808301925050505050505091929192908035906020019064010000000081111561016257600080fd5b82018360208201111561017457600080fd5b8035906020019184600183028401116401000000008311171561019657600080fd5b91908080601f016020809104026020016040519081016040528093929190818152602001838380828437600081840152601f19601f820116905080830192505050505050509192919290803573ffffffffffffffffffffffffffffffffffffffff169060200190929190505050610a72565b005b61037a6004803603606081101561022057600080fd5b810190808035906020019064010000000081111561023d57600080fd5b82018360208201111561024f57600080fd5b8035906020019184600183028401116401000000008311171561027157600080fd5b91908080601f016020809104026020016040519081016040528093929190818152602001838380828437600081840152601f19601f820116905080830192505050505050509192919290803590602001906401000000008111156102d457600080fd5b8201836020820111156102e657600080fd5b8035906020019184600183028401116401000000008311171561030857600080fd5b91908080601f016020809104026020016040519081016040528093929190818152602001838380828437600081840152601f19601f820116905080830192505050505050509192919290803573ffffffffffffffffffffffffffffffffffffffff169060200190929190505050610e1f565b005b6104756004803603606081101561039257600080fd5b81019080803590602001906401000000008111156103af57600080fd5b8201836020820111156103c157600080fd5b803590602001918460018302840111640100000000831117156103e357600080fd5b91908080601f016020809104026020016040519081016040528093929190818152602001838380828437600081840152601f19601f820116905080830192505050505050509192919290803573ffffffffffffffffffffffffffffffffffffffff169060200190929190803573ffffffffffffffffffffffffffffffffffffffff1690602001909291905050506114b6565b005b6105c76004803603604081101561048d57600080fd5b81019080803590602001906401000000008111156104aa57600080fd5b8201836020820111156104bc57600080fd5b803590602001918460018302840111640100000000831117156104de57600080fd5b91908080601f016020809104026020016040519081016040528093929190818152602001838380828437600081840152601f19601f8201169050808301925050505050505091929192908035906020019064010000000081111561054157600080fd5b82018360208201111561055357600080fd5b8035906020019184600183028401116401000000008311171561057557600080fd5b91908080601f016020809104026020016040519081016040528093929190818152602001838380828437600081840152601f19601f820116905080830192505050505050509192919290505050611b5c565b005b6105d1611d91565b604051808273ffffffffffffffffffffffffffffffffffffffff1673ffffffffffffffffffffffffffffffffffffffff16815260200191505060405180910390f35b61061b611dba565b604051808273ffffffffffffffffffffffffffffffffffffffff1673ffffffffffffffffffffffffffffffffffffffff16815260200191505060405180910390f35b6107366004803603604081101561067357600080fd5b810190808035906020019064010000000081111561069057600080fd5b8201836020820111156106a257600080fd5b803590602001918460018302840111640100000000831117156106c457600080fd5b91908080601f016020809104026020016040519081016040528093929190818152602001838380828437600081840152601f19601f820116905080830192505050505050509192919290803573ffffffffffffffffffffffffffffffffffffffff169060200190929190505050611ddf565b60405180806020018473ffffffffffffffffffffffffffffffffffffffff1673ffffffffffffffffffffffffffffffffffffffff168152602001838152602001828103825285818151815260200191508051906020019080838360005b838110156107ae578082015181840152602081019050610793565b50505050905090810190601f1680156107db5780820380516001836020036101000a031916815260200191505b5094505050505060405180910390f35b6108c46004803603604081101561080157600080fd5b810190808035906020019064010000000081111561081e57600080fd5b82018360208201111561083057600080fd5b8035906020019184600183028401116401000000008311171561085257600080fd5b91908080601f016020809104026020016040519081016040528093929190818152602001838380828437600081840152601f19601f820116905080830192505050505050509192919290803573ffffffffffffffffffffffffffffffffffffffff1690602001909291905050506120b3565b60405180806020018673ffffffffffffffffffffffffffffffffffffffff1673ffffffffffffffffffffffffffffffffffffffff168152602001858152602001841515151581526020018373ffffffffffffffffffffffffffffffffffffffff1673ffffffffffffffffffffffffffffffffffffffff168152602001828103825287818151815260200191508051906020019080838360005b8381101561097857808201518184015260208101905061095d565b50505050905090810190601f1680156109a55780820380516001836020036101000a031916815260200191505b50965050505050505060405180910390f35b610a70600480360360208110156109cd57600080fd5b81019080803590602001906401000000008111156109ea57600080fd5b8201836020820111156109fc57600080fd5b80359060200191846001830284011164010000000083111715610a1e57600080fd5b91908080601f016020809104026020016040519081016040528093929190818152602001838380828437600081840152601f19601f820116905080830192505050505050509192919290505050612685565b005b3373ffffffffffffffffffffffffffffffffffffffff166001846040518082805190602001908083835b60208310610abf5780518252602082019150602081019050602083039250610a9c565b6001836020036101000a038019825116818451168082178552505050505050905001915050908152602001604051809103902060020160019054906101000a900473ffffffffffffffffffffffffffffffffffffffff1673ffffffffffffffffffffffffffffffffffffffff1614610b82576040517f08c379a000000000000000000000000000000000000000000000000000000000815260040180806020018281038252602c8152602001806128c3602c913960400191505060405180910390fd5b6001836040518082805190602001908083835b60208310610bb85780518252602082019150602081019050602083039250610b95565b6001836020036101000a038019825116818451168082178552505050505050905001915050908152602001604051809103902060020160009054906101000a900460ff16610c6e576040517f08c379a000000000000000000000000000000000000000000000000000000000815260040180806020018281038252601b8152602001807f456c656374696f6e20506572696f64652048617320456e64656421000000000081525060200191505060405180910390fd5b816001846040518082805190602001908083835b60208310610ca55780518252602082019150602081019050602083039250610c82565b6001836020036101000a038019825116818451168082178552505050505050905001915050908152602001604051809103902060030160008373ffffffffffffffffffffffffffffffffffffffff1673ffffffffffffffffffffffffffffffffffffffff1681526020019081526020016000206000019080519060200190610d2e92919061281d565b50806001846040518082805190602001908083835b60208310610d665780518252602082019150602081019050602083039250610d43565b6001836020036101000a038019825116818451168082178552505050505050905001915050908152602001604051809103902060030160008373ffffffffffffffffffffffffffffffffffffffff1673ffffffffffffffffffffffffffffffffffffffff16815260200190815260200160002060010160006101000a81548173ffffffffffffffffffffffffffffffffffffffff021916908373ffffffffffffffffffffffffffffffffffffffff160217905550505050565b3373ffffffffffffffffffffffffffffffffffffffff166001846040518082805190602001908083835b60208310610e6c5780518252602082019150602081019050602083039250610e49565b6001836020036101000a038019825116818451168082178552505050505050905001915050908152602001604051809103902060020160019054906101000a900473ffffffffffffffffffffffffffffffffffffffff1673ffffffffffffffffffffffffffffffffffffffff1614610f2f576040517f08c379a000000000000000000000000000000000000000000000000000000000815260040180806020018281038252602b8152602001806128ef602b913960400191505060405180910390fd5b6001836040518082805190602001908083835b60208310610f655780518252602082019150602081019050602083039250610f42565b6001836020036101000a038019825116818451168082178552505050505050905001915050908152602001604051809103902060020160009054906101000a900460ff1661101b576040517f08c379a000000000000000000000000000000000000000000000000000000000815260040180806020018281038252601b8152602001807f456c656374696f6e20506572696f64652048617320456e64656421000000000081525060200191505060405180910390fd5b60006001846040518082805190602001908083835b602083106110535780518252602082019150602081019050602083039250611030565b6001836020036101000a038019825116818451168082178552505050505050905001915050908152602001604051809103902060040160008373ffffffffffffffffffffffffffffffffffffffff1673ffffffffffffffffffffffffffffffffffffffff168152602001908152602001600020600201541115611121576040517f08c379a000000000000000000000000000000000000000000000000000000000815260040180806020018281038252602781526020018061291a6027913960400191505060405180910390fd5b600015156001846040518082805190602001908083835b6020831061115b5780518252602082019150602081019050602083039250611138565b6001836020036101000a038019825116818451168082178552505050505050905001915050908152602001604051809103902060040160008373ffffffffffffffffffffffffffffffffffffffff1673ffffffffffffffffffffffffffffffffffffffff16815260200190815260200160002060030160009054906101000a900460ff16151514611254576040517f08c379a00000000000000000000000000000000000000000000000000000000081526004018080602001828103825260188152602001807f54686973205573657220416c726561647920566f74656421000000000000000081525060200191505060405180910390fd5b816001846040518082805190602001908083835b6020831061128b5780518252602082019150602081019050602083039250611268565b6001836020036101000a038019825116818451168082178552505050505050905001915050908152602001604051809103902060040160008373ffffffffffffffffffffffffffffffffffffffff1673ffffffffffffffffffffffffffffffffffffffff168152602001908152602001600020600001908051906020019061131492919061281d565b50806001846040518082805190602001908083835b6020831061134c5780518252602082019150602081019050602083039250611329565b6001836020036101000a038019825116818451168082178552505050505050905001915050908152602001604051809103902060040160008373ffffffffffffffffffffffffffffffffffffffff1673ffffffffffffffffffffffffffffffffffffffff16815260200190815260200160002060010160006101000a81548173ffffffffffffffffffffffffffffffffffffffff021916908373ffffffffffffffffffffffffffffffffffffffff160217905550600180846040518082805190602001908083835b602083106114375780518252602082019150602081019050602083039250611414565b6001836020036101000a038019825116818451168082178552505050505050905001915050908152602001604051809103902060040160008373ffffffffffffffffffffffffffffffffffffffff1673ffffffffffffffffffffffffffffffffffffffff16815260200190815260200160002060020181905550505050565b6001836040518082805190602001908083835b602083106114ec57805182526020820191506020810190506020830392506114c9565b6001836020036101000a038019825116818451168082178552505050505050905001915050908152602001604051809103902060020160009054906101000a900460ff166115a2576040517f08c379a000000000000000000000000000000000000000000000000000000000815260040180806020018281038252601b8152602001807f456c656374696f6e20506572696f64652048617320456e64656421000000000081525060200191505060405180910390fd5b3373ffffffffffffffffffffffffffffffffffffffff166001846040518082805190602001908083835b602083106115ef57805182526020820191506020810190506020830392506115cc565b6001836020036101000a038019825116818451168082178552505050505050905001915050908152602001604051809103902060040160008373ffffffffffffffffffffffffffffffffffffffff1673ffffffffffffffffffffffffffffffffffffffff16815260200190815260200160002060010160009054906101000a900473ffffffffffffffffffffffffffffffffffffffff1673ffffffffffffffffffffffffffffffffffffffff161461170f576040517f08c379a00000000000000000000000000000000000000000000000000000000081526004018080602001828103825260188152602001807f54686973204973204e6f7420596f75722042616c6c6f7421000000000000000081525060200191505060405180910390fd5b600015156001846040518082805190602001908083835b602083106117495780518252602082019150602081019050602083039250611726565b6001836020036101000a038019825116818451168082178552505050505050905001915050908152602001604051809103902060040160008373ffffffffffffffffffffffffffffffffffffffff1673ffffffffffffffffffffffffffffffffffffffff16815260200190815260200160002060030160009054906101000a900460ff16151514611842576040517f08c379a00000000000000000000000000000000000000000000000000000000081526004018080602001828103825260128152602001807f596f7520416c726561647920566f74656421000000000000000000000000000081525060200191505060405180910390fd5b600180846040518082805190602001908083835b602083106118795780518252602082019150602081019050602083039250611856565b6001836020036101000a038019825116818451168082178552505050505050905001915050908152602001604051809103902060040160008373ffffffffffffffffffffffffffffffffffffffff1673ffffffffffffffffffffffffffffffffffffffff16815260200190815260200160002060030160006101000a81548160ff021916908315150217905550816001846040518082805190602001908083835b6020831061193d578051825260208201915060208101905060208303925061191a565b6001836020036101000a038019825116818451168082178552505050505050905001915050908152602001604051809103902060040160008373ffffffffffffffffffffffffffffffffffffffff1673ffffffffffffffffffffffffffffffffffffffff16815260200190815260200160002060030160016101000a81548173ffffffffffffffffffffffffffffffffffffffff021916908373ffffffffffffffffffffffffffffffffffffffff1602179055506001836040518082805190602001908083835b60208310611a275780518252602082019150602081019050602083039250611a04565b6001836020036101000a038019825116818451168082178552505050505050905001915050908152602001604051809103902060040160008273ffffffffffffffffffffffffffffffffffffffff1673ffffffffffffffffffffffffffffffffffffffff168152602001908152602001600020600201546001846040518082805190602001908083835b60208310611ad45780518252602082019150602081019050602083039250611ab1565b6001836020036101000a038019825116818451168082178552505050505050905001915050908152602001604051809103902060030160008473ffffffffffffffffffffffffffffffffffffffff1673ffffffffffffffffffffffffffffffffffffffff16815260200190815260200160002060020160008282540192505081905550505050565b816001836040518082805190602001908083835b60208310611b935780518252602082019150602081019050602083039250611b70565b6001836020036101000a03801982511681845116808217855250505050505090500191505090815260200160405180910390206000019080519060200190611bdc92919061281d565b50806001836040518082805190602001908083835b60208310611c145780518252602082019150602081019050602083039250611bf1565b6001836020036101000a03801982511681845116808217855250505050505090500191505090815260200160405180910390206001019080519060200190611c5d92919061281d565b50336001836040518082805190602001908083835b60208310611c955780518252602082019150602081019050602083039250611c72565b6001836020036101000a038019825116818451168082178552505050505050905001915050908152602001604051809103902060020160016101000a81548173ffffffffffffffffffffffffffffffffffffffff021916908373ffffffffffffffffffffffffffffffffffffffff160217905550600180836040518082805190602001908083835b60208310611d405780518252602082019150602081019050602083039250611d1d565b6001836020036101000a038019825116818451168082178552505050505050905001915050908152602001604051809103902060020160006101000a81548160ff0219169083151502179055505050565b60008060009054906101000a900473ffffffffffffffffffffffffffffffffffffffff16905090565b6000809054906101000a900473ffffffffffffffffffffffffffffffffffffffff1681565b60606000806001856040518082805190602001908083835b60208310611e1a5780518252602082019150602081019050602083039250611df7565b6001836020036101000a038019825116818451168082178552505050505050905001915050908152602001604051809103902060030160008573ffffffffffffffffffffffffffffffffffffffff1673ffffffffffffffffffffffffffffffffffffffff1681526020019081526020016000206000016001866040518082805190602001908083835b60208310611ec65780518252602082019150602081019050602083039250611ea3565b6001836020036101000a038019825116818451168082178552505050505050905001915050908152602001604051809103902060030160008673ffffffffffffffffffffffffffffffffffffffff1673ffffffffffffffffffffffffffffffffffffffff16815260200190815260200160002060010160009054906101000a900473ffffffffffffffffffffffffffffffffffffffff166001876040518082805190602001908083835b60208310611f935780518252602082019150602081019050602083039250611f70565b6001836020036101000a038019825116818451168082178552505050505050905001915050908152602001604051809103902060030160008773ffffffffffffffffffffffffffffffffffffffff1673ffffffffffffffffffffffffffffffffffffffff16815260200190815260200160002060020154828054600181600116156101000203166002900480601f01602080910402602001604051908101604052809291908181526020018280546001816001161561010002031660029004801561209f5780601f106120745761010080835404028352916020019161209f565b820191906000526020600020905b81548152906001019060200180831161208257829003601f168201915b505050505092509250925092509250925092565b60606000806000803373ffffffffffffffffffffffffffffffffffffffff166001886040518082805190602001908083835b6020831061210857805182526020820191506020810190506020830392506120e5565b6001836020036101000a038019825116818451168082178552505050505050905001915050908152602001604051809103902060040160008873ffffffffffffffffffffffffffffffffffffffff1673ffffffffffffffffffffffffffffffffffffffff16815260200190815260200160002060010160009054906101000a900473ffffffffffffffffffffffffffffffffffffffff1673ffffffffffffffffffffffffffffffffffffffff1614612228576040517f08c379a00000000000000000000000000000000000000000000000000000000081526004018080602001828103825260188152602001807f54686973204973204e6f7420596f75722042616c6c6f7421000000000000000081525060200191505060405180910390fd5b6001876040518082805190602001908083835b6020831061225e578051825260208201915060208101905060208303925061223b565b6001836020036101000a038019825116818451168082178552505050505050905001915050908152602001604051809103902060040160008773ffffffffffffffffffffffffffffffffffffffff1673ffffffffffffffffffffffffffffffffffffffff1681526020019081526020016000206000016001886040518082805190602001908083835b6020831061230a57805182526020820191506020810190506020830392506122e7565b6001836020036101000a038019825116818451168082178552505050505050905001915050908152602001604051809103902060040160008873ffffffffffffffffffffffffffffffffffffffff1673ffffffffffffffffffffffffffffffffffffffff16815260200190815260200160002060010160009054906101000a900473ffffffffffffffffffffffffffffffffffffffff166001896040518082805190602001908083835b602083106123d757805182526020820191506020810190506020830392506123b4565b6001836020036101000a038019825116818451168082178552505050505050905001915050908152602001604051809103902060040160008973ffffffffffffffffffffffffffffffffffffffff1673ffffffffffffffffffffffffffffffffffffffff1681526020019081526020016000206002015460018a6040518082805190602001908083835b602083106124845780518252602082019150602081019050602083039250612461565b6001836020036101000a038019825116818451168082178552505050505050905001915050908152602001604051809103902060040160008a73ffffffffffffffffffffffffffffffffffffffff1673ffffffffffffffffffffffffffffffffffffffff16815260200190815260200160002060030160009054906101000a900460ff1660018b6040518082805190602001908083835b6020831061253e578051825260208201915060208101905060208303925061251b565b6001836020036101000a038019825116818451168082178552505050505050905001915050908152602001604051809103902060040160008b73ffffffffffffffffffffffffffffffffffffffff1673ffffffffffffffffffffffffffffffffffffffff16815260200190815260200160002060030160019054906101000a900473ffffffffffffffffffffffffffffffffffffffff16848054600181600116156101000203166002900480601f01602080910402602001604051908101604052809291908181526020018280546001816001161561010002031660029004801561266a5780601f1061263f5761010080835404028352916020019161266a565b820191906000526020600020905b81548152906001019060200180831161264d57829003601f168201915b50505050509450945094509450945094509295509295909350565b3373ffffffffffffffffffffffffffffffffffffffff166001826040518082805190602001908083835b602083106126d257805182526020820191506020810190506020830392506126af565b6001836020036101000a038019825116818451168082178552505050505050905001915050908152602001604051809103902060020160019054906101000a900473ffffffffffffffffffffffffffffffffffffffff1673ffffffffffffffffffffffffffffffffffffffff1614612795576040517f08c379a00000000000000000000000000000000000000000000000000000000081526004018080602001828103825260228152602001806129416022913960400191505060405180910390fd5b60006001826040518082805190602001908083835b602083106127cd57805182526020820191506020810190506020830392506127aa565b6001836020036101000a038019825116818451168082178552505050505050905001915050908152602001604051809103902060020160006101000a81548160ff02191690831515021790555050565b828054600181600116156101000203166002900490600052602060002090601f016020900481019282601f1061285e57805160ff191683800117855561288c565b8280016001018555821561288c579182015b8281111561288b578251825591602001919060010190612870565b5b509050612899919061289d565b5090565b6128bf91905b808211156128bb5760008160009055506001016128a3565b5090565b9056fe4f6e6c7920456c656374696f6e2043726561746f722043616e20416464204e65772043616e646964617465214f6e6c7920456c656374696f6e2043726561746f722043616e20416464205061727469636970616e74732154686973205573657220416c7265616479204164646564204173205061727469636970616e74214f6e6c7920456c656374696f6e2043726561746f722043616e20446f205468697321a265627a7a723158204ff81b8d3d1d5872c294dfa971bc4b40f443e4ce4652bb16da88272fc098415564736f6c63430005100032",
  "source": "pragma solidity >=0.4.21 <0.7.0;\r\n\r\n/// @author Basilius Bias Astho Christyono\r\ncontract Ballot {\r\n\r\n  struct Voter {\r\n    string voterName;\r\n    address voterAddress;\r\n    uint voterWeight;\r\n    bool voterVoted;\r\n    address voterSelectedCandidate;\r\n  }\r\n\r\n  struct Candidate {\r\n    string candidateName;\r\n    address candidateAddress;\r\n    uint candidateVoteCount;\r\n  }\r\n\r\n  struct Election {\r\n    string electionId;\r\n    string electionName;\r\n    bool electionIsActive;\r\n    address electionCreator;\r\n    mapping(address => Candidate) electionCandidates;\r\n    mapping(address => Voter) electionParticipants;\r\n  }\r\n\r\n  address public contractOwner;\r\n  mapping(string => Election) elections;\r\n\r\n  constructor() public {\r\n    contractOwner = msg.sender;\r\n  }\r\n\r\n  /* Getter */\r\n\r\n  /// View Contract Owner\r\n  function viewContractOwner() public view returns (address) {\r\n    return contractOwner;\r\n  }\r\n\r\n  /// Registered User Show Their Voted Candidate Secretly\r\n  function showMyVote(string memory _electionId, address _voterAddress) public view returns (\r\n    string memory voterName, address voterAddress, uint voterWeight, bool voterVoted, address voterSelectedCandidate\r\n  ) {\r\n    require(elections[_electionId].electionParticipants[_voterAddress].voterAddress == msg.sender, \"This Is Not Your Ballot!\");\r\n    return (\r\n      elections[_electionId].electionParticipants[_voterAddress].voterName,\r\n      elections[_electionId].electionParticipants[_voterAddress].voterAddress,\r\n      elections[_electionId].electionParticipants[_voterAddress].voterWeight,\r\n      elections[_electionId].electionParticipants[_voterAddress].voterVoted,\r\n      elections[_electionId].electionParticipants[_voterAddress].voterSelectedCandidate\r\n    );\r\n  }\r\n\r\n  /// View Current Candidate Voted Count\r\n  function showResultCount(string memory _electionId, address _candidateAddress) public view returns (\r\n    string memory candidateName, address candidateAddress, uint candidateVoteCount\r\n  ) {\r\n    return (\r\n      elections[_electionId].electionCandidates[_candidateAddress].candidateName,\r\n      elections[_electionId].electionCandidates[_candidateAddress].candidateAddress,\r\n      elections[_electionId].electionCandidates[_candidateAddress].candidateVoteCount\r\n    );\r\n  }\r\n\r\n  /* Setter */\r\n\r\n  /// Admin Create New Election\r\n  function createElection(string memory _electionId, string memory _electionName) public {\r\n    // require(contractOwner == msg.sender, \"Only Contract Owner Can Create Election!\");\r\n    elections[_electionId].electionId = _electionId;\r\n    elections[_electionId].electionName = _electionName;\r\n    elections[_electionId].electionCreator = msg.sender;\r\n    elections[_electionId].electionIsActive = true;\r\n  }\r\n\r\n  /// Admin Add New Candidate In Specific Election\r\n  function addCandidate(string memory _electionId, string memory _candidateName, address _candidateAddress) public {\r\n    require(elections[_electionId].electionCreator == msg.sender, \"Only Election Creator Can Add New Candidate!\");\r\n    require(elections[_electionId].electionIsActive, \"Election Periode Has Ended!\");\r\n    elections[_electionId].electionCandidates[_candidateAddress].candidateName = _candidateName;\r\n    elections[_electionId].electionCandidates[_candidateAddress].candidateAddress = _candidateAddress;\r\n  }\r\n\r\n  // Admin Add New Voter Participant In Specific Election And Give 1 Ballot\r\n  function addParticipant(string memory _electionId, string memory _voterName, address _voterAddress) public {\r\n    require(elections[_electionId].electionCreator == msg.sender, \"Only Election Creator Can Add Participants!\");\r\n    require(elections[_electionId].electionIsActive, \"Election Periode Has Ended!\");\r\n    require(elections[_electionId].electionParticipants[_voterAddress].voterWeight <= 0, \"This User Already Added As Participant!\");\r\n    require(elections[_electionId].electionParticipants[_voterAddress].voterVoted == false, \"This User Already Voted!\");\r\n    elections[_electionId].electionParticipants[_voterAddress].voterName = _voterName;\r\n    elections[_electionId].electionParticipants[_voterAddress].voterAddress = _voterAddress;\r\n    elections[_electionId].electionParticipants[_voterAddress].voterWeight = 1;\r\n  }\r\n\r\n  /// Admin Stop Election Periode\r\n  function endElection(string memory _electionId) public {\r\n    require(elections[_electionId].electionCreator == msg.sender, \"Only Election Creator Can Do This!\");\r\n    elections[_electionId].electionIsActive = false;\r\n  }\r\n\r\n  /// Registered User Participant Voting Some Candidate\r\n  function vote(string memory _electionId, address _candidateAddress, address _voterAddress) public {\r\n    require(elections[_electionId].electionIsActive, \"Election Periode Has Ended!\");\r\n    require(elections[_electionId].electionParticipants[_voterAddress].voterAddress == msg.sender, \"This Is Not Your Ballot!\");\r\n    require(elections[_electionId].electionParticipants[_voterAddress].voterVoted == false, \"You Already Voted!\");\r\n    elections[_electionId].electionParticipants[_voterAddress].voterVoted = true;\r\n    elections[_electionId].electionParticipants[_voterAddress].voterSelectedCandidate = _candidateAddress;\r\n    elections[_electionId].electionCandidates[_candidateAddress].candidateVoteCount += elections[_electionId].electionParticipants[_voterAddress].voterWeight;\r\n  }\r\n\r\n}\r\n",
  "sourcePath": "D:\\Skripsi\\blockchain-evoting\\contract\\contracts\\Ballot.sol",
  "compiler": {
    "name": "solc",
    "version": "0.5.16+commit.9c3226ce.Emscripten.clang"
  },
  "schemaVersion": "3.0.23",
  "updatedAt": "2020-03-04T10:35:03.216Z",
  "devdoc": {
    "author": "Basilius Bias Astho Christyono",
    "methods": {}
  },
  "userdoc": {
    "methods": {
      "addCandidate(string,string,address)": {
        "notice": "Admin Add New Candidate In Specific Election"
      },
      "createElection(string,string)": {
        "notice": "Admin Create New Election"
      },
      "endElection(string)": {
        "notice": "Admin Stop Election Periode"
      },
      "showMyVote(string,address)": {
        "notice": "Registered User Show Their Voted Candidate Secretly"
      },
      "showResultCount(string,address)": {
        "notice": "View Current Candidate Voted Count"
      },
      "viewContractOwner()": {
        "notice": "View Contract Owner"
      },
      "vote(string,address,address)": {
        "notice": "Registered User Participant Voting Some Candidate"
      }
    }
  }
}