{
  "contractName": "Ballot",
  "abi": [
    {
      "inputs": [],
      "payable": false,
      "stateMutability": "nonpayable",
      "type": "constructor"
    },
    {
      "constant": true,
      "inputs": [],
      "name": "contractOwner",
      "outputs": [
        {
          "internalType": "address",
          "name": "",
          "type": "address"
        }
      ],
      "payable": false,
      "stateMutability": "view",
      "type": "function"
    },
    {
      "constant": false,
      "inputs": [
        {
          "internalType": "string",
          "name": "_electionId",
          "type": "string"
        },
        {
          "internalType": "string",
          "name": "_electionName",
          "type": "string"
        }
      ],
      "name": "createElection",
      "outputs": [],
      "payable": false,
      "stateMutability": "nonpayable",
      "type": "function"
    },
    {
      "constant": false,
      "inputs": [
        {
          "internalType": "string",
          "name": "_electionId",
          "type": "string"
        },
        {
          "internalType": "string",
          "name": "_candidateName",
          "type": "string"
        },
        {
          "internalType": "address",
          "name": "_candidateAddress",
          "type": "address"
        }
      ],
      "name": "addCandidate",
      "outputs": [],
      "payable": false,
      "stateMutability": "nonpayable",
      "type": "function"
    },
    {
      "constant": false,
      "inputs": [
        {
          "internalType": "string",
          "name": "_electionId",
          "type": "string"
        },
        {
          "internalType": "string",
          "name": "_voterName",
          "type": "string"
        },
        {
          "internalType": "address",
          "name": "_voterAddress",
          "type": "address"
        }
      ],
      "name": "addParticipant",
      "outputs": [],
      "payable": false,
      "stateMutability": "nonpayable",
      "type": "function"
    },
    {
      "constant": false,
      "inputs": [
        {
          "internalType": "string",
          "name": "_electionId",
          "type": "string"
        }
      ],
      "name": "endElection",
      "outputs": [],
      "payable": false,
      "stateMutability": "nonpayable",
      "type": "function"
    },
    {
      "constant": false,
      "inputs": [
        {
          "internalType": "string",
          "name": "_electionId",
          "type": "string"
        },
        {
          "internalType": "address",
          "name": "_candidateAddress",
          "type": "address"
        },
        {
          "internalType": "address",
          "name": "_voterAddress",
          "type": "address"
        }
      ],
      "name": "vote",
      "outputs": [],
      "payable": false,
      "stateMutability": "nonpayable",
      "type": "function"
    },
    {
      "constant": true,
      "inputs": [
        {
          "internalType": "string",
          "name": "_electionId",
          "type": "string"
        },
        {
          "internalType": "address",
          "name": "_voterAddress",
          "type": "address"
        }
      ],
      "name": "showMyVote",
      "outputs": [
        {
          "internalType": "string",
          "name": "voterName",
          "type": "string"
        },
        {
          "internalType": "address",
          "name": "voterAddress",
          "type": "address"
        },
        {
          "internalType": "uint256",
          "name": "voterWeight",
          "type": "uint256"
        },
        {
          "internalType": "bool",
          "name": "voterVoted",
          "type": "bool"
        },
        {
          "internalType": "address",
          "name": "voterSelectedCandidate",
          "type": "address"
        }
      ],
      "payable": false,
      "stateMutability": "view",
      "type": "function"
    },
    {
      "constant": true,
      "inputs": [
        {
          "internalType": "string",
          "name": "_electionId",
          "type": "string"
        },
        {
          "internalType": "address",
          "name": "_candidateAddress",
          "type": "address"
        }
      ],
      "name": "showResultCount",
      "outputs": [
        {
          "internalType": "string",
          "name": "candidateName",
          "type": "string"
        },
        {
          "internalType": "address",
          "name": "candidateAddress",
          "type": "address"
        },
        {
          "internalType": "uint256",
          "name": "candidateVoteCount",
          "type": "uint256"
        }
      ],
      "payable": false,
      "stateMutability": "view",
      "type": "function"
    }
  ],
  "bytecode": "0x608060405234801561001057600080fd5b50336000806101000a81548173ffffffffffffffffffffffffffffffffffffffff021916908373ffffffffffffffffffffffffffffffffffffffff1602179055506129e6806100606000396000f3fe608060405234801561001057600080fd5b50600436106100885760003560e01c8063ce606ee01161005b578063ce606ee0146105be578063d2ad9b7514610608578063f441b54714610796578063fe43bc071461096257610088565b80630b32ff771461008d5780634f543b06146101ff57806379c0e20314610371578063bd27eca01461046c575b600080fd5b6101fd600480360360608110156100a357600080fd5b81019080803590602001906401000000008111156100c057600080fd5b8201836020820111156100d257600080fd5b803590602001918460018302840111640100000000831117156100f457600080fd5b91908080601f016020809104026020016040519081016040528093929190818152602001838380828437600081840152601f19601f8201169050808301925050505050505091929192908035906020019064010000000081111561015757600080fd5b82018360208201111561016957600080fd5b8035906020019184600183028401116401000000008311171561018b57600080fd5b91908080601f016020809104026020016040519081016040528093929190818152602001838380828437600081840152601f19601f820116905080830192505050505050509192919290803573ffffffffffffffffffffffffffffffffffffffff169060200190929190505050610a1d565b005b61036f6004803603606081101561021557600080fd5b810190808035906020019064010000000081111561023257600080fd5b82018360208201111561024457600080fd5b8035906020019184600183028401116401000000008311171561026657600080fd5b91908080601f016020809104026020016040519081016040528093929190818152602001838380828437600081840152601f19601f820116905080830192505050505050509192919290803590602001906401000000008111156102c957600080fd5b8201836020820111156102db57600080fd5b803590602001918460018302840111640100000000831117156102fd57600080fd5b91908080601f016020809104026020016040519081016040528093929190818152602001838380828437600081840152601f19601f820116905080830192505050505050509192919290803573ffffffffffffffffffffffffffffffffffffffff169060200190929190505050610dca565b005b61046a6004803603606081101561038757600080fd5b81019080803590602001906401000000008111156103a457600080fd5b8201836020820111156103b657600080fd5b803590602001918460018302840111640100000000831117156103d857600080fd5b91908080601f016020809104026020016040519081016040528093929190818152602001838380828437600081840152601f19601f820116905080830192505050505050509192919290803573ffffffffffffffffffffffffffffffffffffffff169060200190929190803573ffffffffffffffffffffffffffffffffffffffff169060200190929190505050611461565b005b6105bc6004803603604081101561048257600080fd5b810190808035906020019064010000000081111561049f57600080fd5b8201836020820111156104b157600080fd5b803590602001918460018302840111640100000000831117156104d357600080fd5b91908080601f016020809104026020016040519081016040528093929190818152602001838380828437600081840152601f19601f8201169050808301925050505050505091929192908035906020019064010000000081111561053657600080fd5b82018360208201111561054857600080fd5b8035906020019184600183028401116401000000008311171561056a57600080fd5b91908080601f016020809104026020016040519081016040528093929190818152602001838380828437600081840152601f19601f820116905080830192505050505050509192919290505050611b07565b005b6105c6611de1565b604051808273ffffffffffffffffffffffffffffffffffffffff1673ffffffffffffffffffffffffffffffffffffffff16815260200191505060405180910390f35b6106e16004803603604081101561061e57600080fd5b810190808035906020019064010000000081111561063b57600080fd5b82018360208201111561064d57600080fd5b8035906020019184600183028401116401000000008311171561066f57600080fd5b91908080601f016020809104026020016040519081016040528093929190818152602001838380828437600081840152601f19601f820116905080830192505050505050509192919290803573ffffffffffffffffffffffffffffffffffffffff169060200190929190505050611e06565b60405180806020018473ffffffffffffffffffffffffffffffffffffffff1673ffffffffffffffffffffffffffffffffffffffff168152602001838152602001828103825285818151815260200191508051906020019080838360005b8381101561075957808201518184015260208101905061073e565b50505050905090810190601f1680156107865780820380516001836020036101000a031916815260200191505b5094505050505060405180910390f35b61086f600480360360408110156107ac57600080fd5b81019080803590602001906401000000008111156107c957600080fd5b8201836020820111156107db57600080fd5b803590602001918460018302840111640100000000831117156107fd57600080fd5b91908080601f016020809104026020016040519081016040528093929190818152602001838380828437600081840152601f19601f820116905080830192505050505050509192919290803573ffffffffffffffffffffffffffffffffffffffff1690602001909291905050506120da565b60405180806020018673ffffffffffffffffffffffffffffffffffffffff1673ffffffffffffffffffffffffffffffffffffffff168152602001858152602001841515151581526020018373ffffffffffffffffffffffffffffffffffffffff1673ffffffffffffffffffffffffffffffffffffffff168152602001828103825287818151815260200191508051906020019080838360005b83811015610923578082015181840152602081019050610908565b50505050905090810190601f1680156109505780820380516001836020036101000a031916815260200191505b50965050505050505060405180910390f35b610a1b6004803603602081101561097857600080fd5b810190808035906020019064010000000081111561099557600080fd5b8201836020820111156109a757600080fd5b803590602001918460018302840111640100000000831117156109c957600080fd5b91908080601f016020809104026020016040519081016040528093929190818152602001838380828437600081840152601f19601f8201169050808301925050505050505091929192905050506126ac565b005b3373ffffffffffffffffffffffffffffffffffffffff166001846040518082805190602001908083835b60208310610a6a5780518252602082019150602081019050602083039250610a47565b6001836020036101000a038019825116818451168082178552505050505050905001915050908152602001604051809103902060020160019054906101000a900473ffffffffffffffffffffffffffffffffffffffff1673ffffffffffffffffffffffffffffffffffffffff1614610b2d576040517f08c379a000000000000000000000000000000000000000000000000000000000815260040180806020018281038252602c8152602001806128ea602c913960400191505060405180910390fd5b6001836040518082805190602001908083835b60208310610b635780518252602082019150602081019050602083039250610b40565b6001836020036101000a038019825116818451168082178552505050505050905001915050908152602001604051809103902060020160009054906101000a900460ff16610c19576040517f08c379a000000000000000000000000000000000000000000000000000000000815260040180806020018281038252601b8152602001807f456c656374696f6e20506572696f64652048617320456e64656421000000000081525060200191505060405180910390fd5b816001846040518082805190602001908083835b60208310610c505780518252602082019150602081019050602083039250610c2d565b6001836020036101000a038019825116818451168082178552505050505050905001915050908152602001604051809103902060030160008373ffffffffffffffffffffffffffffffffffffffff1673ffffffffffffffffffffffffffffffffffffffff1681526020019081526020016000206000019080519060200190610cd9929190612844565b50806001846040518082805190602001908083835b60208310610d115780518252602082019150602081019050602083039250610cee565b6001836020036101000a038019825116818451168082178552505050505050905001915050908152602001604051809103902060030160008373ffffffffffffffffffffffffffffffffffffffff1673ffffffffffffffffffffffffffffffffffffffff16815260200190815260200160002060010160006101000a81548173ffffffffffffffffffffffffffffffffffffffff021916908373ffffffffffffffffffffffffffffffffffffffff160217905550505050565b3373ffffffffffffffffffffffffffffffffffffffff166001846040518082805190602001908083835b60208310610e175780518252602082019150602081019050602083039250610df4565b6001836020036101000a038019825116818451168082178552505050505050905001915050908152602001604051809103902060020160019054906101000a900473ffffffffffffffffffffffffffffffffffffffff1673ffffffffffffffffffffffffffffffffffffffff1614610eda576040517f08c379a000000000000000000000000000000000000000000000000000000000815260040180806020018281038252602b81526020018061293e602b913960400191505060405180910390fd5b6001836040518082805190602001908083835b60208310610f105780518252602082019150602081019050602083039250610eed565b6001836020036101000a038019825116818451168082178552505050505050905001915050908152602001604051809103902060020160009054906101000a900460ff16610fc6576040517f08c379a000000000000000000000000000000000000000000000000000000000815260040180806020018281038252601b8152602001807f456c656374696f6e20506572696f64652048617320456e64656421000000000081525060200191505060405180910390fd5b60006001846040518082805190602001908083835b60208310610ffe5780518252602082019150602081019050602083039250610fdb565b6001836020036101000a038019825116818451168082178552505050505050905001915050908152602001604051809103902060040160008373ffffffffffffffffffffffffffffffffffffffff1673ffffffffffffffffffffffffffffffffffffffff1681526020019081526020016000206002015411156110cc576040517f08c379a00000000000000000000000000000000000000000000000000000000081526004018080602001828103825260278152602001806129696027913960400191505060405180910390fd5b600015156001846040518082805190602001908083835b6020831061110657805182526020820191506020810190506020830392506110e3565b6001836020036101000a038019825116818451168082178552505050505050905001915050908152602001604051809103902060040160008373ffffffffffffffffffffffffffffffffffffffff1673ffffffffffffffffffffffffffffffffffffffff16815260200190815260200160002060030160009054906101000a900460ff161515146111ff576040517f08c379a00000000000000000000000000000000000000000000000000000000081526004018080602001828103825260188152602001807f54686973205573657220416c726561647920566f74656421000000000000000081525060200191505060405180910390fd5b816001846040518082805190602001908083835b602083106112365780518252602082019150602081019050602083039250611213565b6001836020036101000a038019825116818451168082178552505050505050905001915050908152602001604051809103902060040160008373ffffffffffffffffffffffffffffffffffffffff1673ffffffffffffffffffffffffffffffffffffffff16815260200190815260200160002060000190805190602001906112bf929190612844565b50806001846040518082805190602001908083835b602083106112f757805182526020820191506020810190506020830392506112d4565b6001836020036101000a038019825116818451168082178552505050505050905001915050908152602001604051809103902060040160008373ffffffffffffffffffffffffffffffffffffffff1673ffffffffffffffffffffffffffffffffffffffff16815260200190815260200160002060010160006101000a81548173ffffffffffffffffffffffffffffffffffffffff021916908373ffffffffffffffffffffffffffffffffffffffff160217905550600180846040518082805190602001908083835b602083106113e257805182526020820191506020810190506020830392506113bf565b6001836020036101000a038019825116818451168082178552505050505050905001915050908152602001604051809103902060040160008373ffffffffffffffffffffffffffffffffffffffff1673ffffffffffffffffffffffffffffffffffffffff16815260200190815260200160002060020181905550505050565b6001836040518082805190602001908083835b602083106114975780518252602082019150602081019050602083039250611474565b6001836020036101000a038019825116818451168082178552505050505050905001915050908152602001604051809103902060020160009054906101000a900460ff1661154d576040517f08c379a000000000000000000000000000000000000000000000000000000000815260040180806020018281038252601b8152602001807f456c656374696f6e20506572696f64652048617320456e64656421000000000081525060200191505060405180910390fd5b3373ffffffffffffffffffffffffffffffffffffffff166001846040518082805190602001908083835b6020831061159a5780518252602082019150602081019050602083039250611577565b6001836020036101000a038019825116818451168082178552505050505050905001915050908152602001604051809103902060040160008373ffffffffffffffffffffffffffffffffffffffff1673ffffffffffffffffffffffffffffffffffffffff16815260200190815260200160002060010160009054906101000a900473ffffffffffffffffffffffffffffffffffffffff1673ffffffffffffffffffffffffffffffffffffffff16146116ba576040517f08c379a00000000000000000000000000000000000000000000000000000000081526004018080602001828103825260188152602001807f54686973204973204e6f7420596f75722042616c6c6f7421000000000000000081525060200191505060405180910390fd5b600015156001846040518082805190602001908083835b602083106116f457805182526020820191506020810190506020830392506116d1565b6001836020036101000a038019825116818451168082178552505050505050905001915050908152602001604051809103902060040160008373ffffffffffffffffffffffffffffffffffffffff1673ffffffffffffffffffffffffffffffffffffffff16815260200190815260200160002060030160009054906101000a900460ff161515146117ed576040517f08c379a00000000000000000000000000000000000000000000000000000000081526004018080602001828103825260128152602001807f596f7520416c726561647920566f74656421000000000000000000000000000081525060200191505060405180910390fd5b600180846040518082805190602001908083835b602083106118245780518252602082019150602081019050602083039250611801565b6001836020036101000a038019825116818451168082178552505050505050905001915050908152602001604051809103902060040160008373ffffffffffffffffffffffffffffffffffffffff1673ffffffffffffffffffffffffffffffffffffffff16815260200190815260200160002060030160006101000a81548160ff021916908315150217905550816001846040518082805190602001908083835b602083106118e857805182526020820191506020810190506020830392506118c5565b6001836020036101000a038019825116818451168082178552505050505050905001915050908152602001604051809103902060040160008373ffffffffffffffffffffffffffffffffffffffff1673ffffffffffffffffffffffffffffffffffffffff16815260200190815260200160002060030160016101000a81548173ffffffffffffffffffffffffffffffffffffffff021916908373ffffffffffffffffffffffffffffffffffffffff1602179055506001836040518082805190602001908083835b602083106119d257805182526020820191506020810190506020830392506119af565b6001836020036101000a038019825116818451168082178552505050505050905001915050908152602001604051809103902060040160008273ffffffffffffffffffffffffffffffffffffffff1673ffffffffffffffffffffffffffffffffffffffff168152602001908152602001600020600201546001846040518082805190602001908083835b60208310611a7f5780518252602082019150602081019050602083039250611a5c565b6001836020036101000a038019825116818451168082178552505050505050905001915050908152602001604051809103902060030160008473ffffffffffffffffffffffffffffffffffffffff1673ffffffffffffffffffffffffffffffffffffffff16815260200190815260200160002060020160008282540192505081905550505050565b3373ffffffffffffffffffffffffffffffffffffffff166000809054906101000a900473ffffffffffffffffffffffffffffffffffffffff1673ffffffffffffffffffffffffffffffffffffffff1614611bac576040517f08c379a00000000000000000000000000000000000000000000000000000000081526004018080602001828103825260288152602001806129166028913960400191505060405180910390fd5b816001836040518082805190602001908083835b60208310611be35780518252602082019150602081019050602083039250611bc0565b6001836020036101000a03801982511681845116808217855250505050505090500191505090815260200160405180910390206000019080519060200190611c2c929190612844565b50806001836040518082805190602001908083835b60208310611c645780518252602082019150602081019050602083039250611c41565b6001836020036101000a03801982511681845116808217855250505050505090500191505090815260200160405180910390206001019080519060200190611cad929190612844565b50336001836040518082805190602001908083835b60208310611ce55780518252602082019150602081019050602083039250611cc2565b6001836020036101000a038019825116818451168082178552505050505050905001915050908152602001604051809103902060020160016101000a81548173ffffffffffffffffffffffffffffffffffffffff021916908373ffffffffffffffffffffffffffffffffffffffff160217905550600180836040518082805190602001908083835b60208310611d905780518252602082019150602081019050602083039250611d6d565b6001836020036101000a038019825116818451168082178552505050505050905001915050908152602001604051809103902060020160006101000a81548160ff0219169083151502179055505050565b6000809054906101000a900473ffffffffffffffffffffffffffffffffffffffff1681565b60606000806001856040518082805190602001908083835b60208310611e415780518252602082019150602081019050602083039250611e1e565b6001836020036101000a038019825116818451168082178552505050505050905001915050908152602001604051809103902060030160008573ffffffffffffffffffffffffffffffffffffffff1673ffffffffffffffffffffffffffffffffffffffff1681526020019081526020016000206000016001866040518082805190602001908083835b60208310611eed5780518252602082019150602081019050602083039250611eca565b6001836020036101000a038019825116818451168082178552505050505050905001915050908152602001604051809103902060030160008673ffffffffffffffffffffffffffffffffffffffff1673ffffffffffffffffffffffffffffffffffffffff16815260200190815260200160002060010160009054906101000a900473ffffffffffffffffffffffffffffffffffffffff166001876040518082805190602001908083835b60208310611fba5780518252602082019150602081019050602083039250611f97565b6001836020036101000a038019825116818451168082178552505050505050905001915050908152602001604051809103902060030160008773ffffffffffffffffffffffffffffffffffffffff1673ffffffffffffffffffffffffffffffffffffffff16815260200190815260200160002060020154828054600181600116156101000203166002900480601f0160208091040260200160405190810160405280929190818152602001828054600181600116156101000203166002900480156120c65780601f1061209b576101008083540402835291602001916120c6565b820191906000526020600020905b8154815290600101906020018083116120a957829003601f168201915b505050505092509250925092509250925092565b60606000806000803373ffffffffffffffffffffffffffffffffffffffff166001886040518082805190602001908083835b6020831061212f578051825260208201915060208101905060208303925061210c565b6001836020036101000a038019825116818451168082178552505050505050905001915050908152602001604051809103902060040160008873ffffffffffffffffffffffffffffffffffffffff1673ffffffffffffffffffffffffffffffffffffffff16815260200190815260200160002060010160009054906101000a900473ffffffffffffffffffffffffffffffffffffffff1673ffffffffffffffffffffffffffffffffffffffff161461224f576040517f08c379a00000000000000000000000000000000000000000000000000000000081526004018080602001828103825260188152602001807f54686973204973204e6f7420596f75722042616c6c6f7421000000000000000081525060200191505060405180910390fd5b6001876040518082805190602001908083835b602083106122855780518252602082019150602081019050602083039250612262565b6001836020036101000a038019825116818451168082178552505050505050905001915050908152602001604051809103902060040160008773ffffffffffffffffffffffffffffffffffffffff1673ffffffffffffffffffffffffffffffffffffffff1681526020019081526020016000206000016001886040518082805190602001908083835b60208310612331578051825260208201915060208101905060208303925061230e565b6001836020036101000a038019825116818451168082178552505050505050905001915050908152602001604051809103902060040160008873ffffffffffffffffffffffffffffffffffffffff1673ffffffffffffffffffffffffffffffffffffffff16815260200190815260200160002060010160009054906101000a900473ffffffffffffffffffffffffffffffffffffffff166001896040518082805190602001908083835b602083106123fe57805182526020820191506020810190506020830392506123db565b6001836020036101000a038019825116818451168082178552505050505050905001915050908152602001604051809103902060040160008973ffffffffffffffffffffffffffffffffffffffff1673ffffffffffffffffffffffffffffffffffffffff1681526020019081526020016000206002015460018a6040518082805190602001908083835b602083106124ab5780518252602082019150602081019050602083039250612488565b6001836020036101000a038019825116818451168082178552505050505050905001915050908152602001604051809103902060040160008a73ffffffffffffffffffffffffffffffffffffffff1673ffffffffffffffffffffffffffffffffffffffff16815260200190815260200160002060030160009054906101000a900460ff1660018b6040518082805190602001908083835b602083106125655780518252602082019150602081019050602083039250612542565b6001836020036101000a038019825116818451168082178552505050505050905001915050908152602001604051809103902060040160008b73ffffffffffffffffffffffffffffffffffffffff1673ffffffffffffffffffffffffffffffffffffffff16815260200190815260200160002060030160019054906101000a900473ffffffffffffffffffffffffffffffffffffffff16848054600181600116156101000203166002900480601f0160208091040260200160405190810160405280929190818152602001828054600181600116156101000203166002900480156126915780601f1061266657610100808354040283529160200191612691565b820191906000526020600020905b81548152906001019060200180831161267457829003601f168201915b50505050509450945094509450945094509295509295909350565b3373ffffffffffffffffffffffffffffffffffffffff166001826040518082805190602001908083835b602083106126f957805182526020820191506020810190506020830392506126d6565b6001836020036101000a038019825116818451168082178552505050505050905001915050908152602001604051809103902060020160019054906101000a900473ffffffffffffffffffffffffffffffffffffffff1673ffffffffffffffffffffffffffffffffffffffff16146127bc576040517f08c379a00000000000000000000000000000000000000000000000000000000081526004018080602001828103825260228152602001806129906022913960400191505060405180910390fd5b60006001826040518082805190602001908083835b602083106127f457805182526020820191506020810190506020830392506127d1565b6001836020036101000a038019825116818451168082178552505050505050905001915050908152602001604051809103902060020160006101000a81548160ff02191690831515021790555050565b828054600181600116156101000203166002900490600052602060002090601f016020900481019282601f1061288557805160ff19168380011785556128b3565b828001600101855582156128b3579182015b828111156128b2578251825591602001919060010190612897565b5b5090506128c091906128c4565b5090565b6128e691905b808211156128e25760008160009055506001016128ca565b5090565b9056fe4f6e6c7920456c656374696f6e2043726561746f722043616e20416464204e65772043616e646964617465214f6e6c7920436f6e7472616374204f776e65722043616e2043726561746520456c656374696f6e214f6e6c7920456c656374696f6e2043726561746f722043616e20416464205061727469636970616e74732154686973205573657220416c7265616479204164646564204173205061727469636970616e74214f6e6c7920456c656374696f6e2043726561746f722043616e20446f205468697321a265627a7a72315820803a568d29ec23c73b3347d63c3346e93122ad31f7a51c95d6cf96b36874104b64736f6c63430005100032",
  "source": "pragma solidity >=0.4.21 <0.7.0;\r\n\r\ncontract Ballot {\r\n\r\n  struct Voter {\r\n    string voterName;\r\n    address voterAddress;\r\n    uint voterWeight;\r\n    bool voterVoted;\r\n    address voterSelectedCandidate;\r\n  }\r\n\r\n  struct Candidate {\r\n    string candidateName;\r\n    address candidateAddress;\r\n    uint candidateVoteCount;\r\n  }\r\n\r\n  struct Election {\r\n    string electionId;\r\n    string electionName;\r\n    bool electionIsActive;\r\n    address electionCreator;\r\n    mapping(address => Candidate) electionCandidates;\r\n    mapping(address => Voter) electionParticipants;\r\n  }\r\n\r\n  address public contractOwner;\r\n  mapping(string => Election) elections;\r\n\r\n  constructor() public {\r\n    contractOwner = msg.sender;\r\n  }\r\n\r\n  /// Admin Create New Election\r\n  function createElection(string memory _electionId, string memory _electionName) public {\r\n    require(contractOwner == msg.sender, \"Only Contract Owner Can Create Election!\");\r\n    elections[_electionId].electionId = _electionId;\r\n    elections[_electionId].electionName = _electionName;\r\n    elections[_electionId].electionCreator = msg.sender;\r\n    elections[_electionId].electionIsActive = true;\r\n  }\r\n\r\n  /// Admin Add New Candidate In Specific Election\r\n  function addCandidate(string memory _electionId, string memory _candidateName, address _candidateAddress) public {\r\n    require(elections[_electionId].electionCreator == msg.sender, \"Only Election Creator Can Add New Candidate!\");\r\n    require(elections[_electionId].electionIsActive, \"Election Periode Has Ended!\");\r\n    elections[_electionId].electionCandidates[_candidateAddress].candidateName = _candidateName;\r\n    elections[_electionId].electionCandidates[_candidateAddress].candidateAddress = _candidateAddress;\r\n  }\r\n\r\n  // Admin Add New Voter Participant In Specific Election And Give 1 Ballot\r\n  function addParticipant(string memory _electionId, string memory _voterName, address _voterAddress) public {\r\n    require(elections[_electionId].electionCreator == msg.sender, \"Only Election Creator Can Add Participants!\");\r\n    require(elections[_electionId].electionIsActive, \"Election Periode Has Ended!\");\r\n    require(elections[_electionId].electionParticipants[_voterAddress].voterWeight <= 0, \"This User Already Added As Participant!\");\r\n    require(elections[_electionId].electionParticipants[_voterAddress].voterVoted == false, \"This User Already Voted!\");\r\n    elections[_electionId].electionParticipants[_voterAddress].voterName = _voterName;\r\n    elections[_electionId].electionParticipants[_voterAddress].voterAddress = _voterAddress;\r\n    elections[_electionId].electionParticipants[_voterAddress].voterWeight = 1;\r\n  }\r\n\r\n  /// Admin Stop Election Periode\r\n  function endElection(string memory _electionId) public {\r\n    require(elections[_electionId].electionCreator == msg.sender, \"Only Election Creator Can Do This!\");\r\n    elections[_electionId].electionIsActive = false;\r\n  }\r\n\r\n  /// Registered User Participant Voting Some Candidate\r\n  function vote(string memory _electionId, address _candidateAddress, address _voterAddress) public {\r\n    require(elections[_electionId].electionIsActive, \"Election Periode Has Ended!\");\r\n    require(elections[_electionId].electionParticipants[_voterAddress].voterAddress == msg.sender, \"This Is Not Your Ballot!\");\r\n    require(elections[_electionId].electionParticipants[_voterAddress].voterVoted == false, \"You Already Voted!\");\r\n    elections[_electionId].electionParticipants[_voterAddress].voterVoted = true;\r\n    elections[_electionId].electionParticipants[_voterAddress].voterSelectedCandidate = _candidateAddress;\r\n    elections[_electionId].electionCandidates[_candidateAddress].candidateVoteCount += elections[_electionId].electionParticipants[_voterAddress].voterWeight;\r\n  }\r\n\r\n  /// Registered User Show Their Voted Candidate Secretly\r\n  function showMyVote(string memory _electionId, address _voterAddress) public view returns (\r\n    string memory voterName, address voterAddress, uint voterWeight, bool voterVoted, address voterSelectedCandidate\r\n  ) {\r\n    require(elections[_electionId].electionParticipants[_voterAddress].voterAddress == msg.sender, \"This Is Not Your Ballot!\");\r\n    return (\r\n      elections[_electionId].electionParticipants[_voterAddress].voterName,\r\n      elections[_electionId].electionParticipants[_voterAddress].voterAddress,\r\n      elections[_electionId].electionParticipants[_voterAddress].voterWeight,\r\n      elections[_electionId].electionParticipants[_voterAddress].voterVoted,\r\n      elections[_electionId].electionParticipants[_voterAddress].voterSelectedCandidate\r\n    );\r\n  }\r\n\r\n  /// View Current Candidate Voted Count\r\n  function showResultCount(string memory _electionId, address _candidateAddress) public view returns (\r\n    string memory candidateName, address candidateAddress, uint candidateVoteCount\r\n  ) {\r\n    return (\r\n      elections[_electionId].electionCandidates[_candidateAddress].candidateName,\r\n      elections[_electionId].electionCandidates[_candidateAddress].candidateAddress,\r\n      elections[_electionId].electionCandidates[_candidateAddress].candidateVoteCount\r\n    );\r\n  }\r\n\r\n}\r\n",
  "sourcePath": "D:\\Skripsi\\blockchain-evoting\\contract\\contracts\\Ballot.sol",
  "compiler": {
    "name": "solc",
    "version": "0.5.16+commit.9c3226ce.Emscripten.clang"
  },
  "schemaVersion": "3.0.23",
  "updatedAt": "2020-02-16T16:36:35.952Z",
  "devdoc": {
    "methods": {}
  },
  "userdoc": {
    "methods": {
      "addCandidate(string,string,address)": {
        "notice": "Admin Add New Candidate In Specific Election"
      },
      "createElection(string,string)": {
        "notice": "Admin Create New Election"
      },
      "endElection(string)": {
        "notice": "Admin Stop Election Periode"
      },
      "showMyVote(string,address)": {
        "notice": "Registered User Show Their Voted Candidate Secretly"
      },
      "showResultCount(string,address)": {
        "notice": "View Current Candidate Voted Count"
      },
      "vote(string,address,address)": {
        "notice": "Registered User Participant Voting Some Candidate"
      }
    }
  }
}