{
  "contractName": "Ballot",
  "abi": [
    {
      "inputs": [],
      "payable": false,
      "stateMutability": "nonpayable",
      "type": "constructor"
    },
    {
      "constant": true,
      "inputs": [],
      "name": "contractOwner",
      "outputs": [
        {
          "internalType": "address",
          "name": "",
          "type": "address"
        }
      ],
      "payable": false,
      "stateMutability": "view",
      "type": "function"
    },
    {
      "constant": true,
      "inputs": [],
      "name": "viewContractOwner",
      "outputs": [
        {
          "internalType": "address",
          "name": "",
          "type": "address"
        }
      ],
      "payable": false,
      "stateMutability": "view",
      "type": "function"
    },
    {
      "constant": true,
      "inputs": [
        {
          "internalType": "string",
          "name": "_electionId",
          "type": "string"
        },
        {
          "internalType": "address",
          "name": "_voterAddress",
          "type": "address"
        }
      ],
      "name": "showMyVote",
      "outputs": [
        {
          "internalType": "address",
          "name": "voterAddress",
          "type": "address"
        },
        {
          "internalType": "uint256",
          "name": "voterWeight",
          "type": "uint256"
        },
        {
          "internalType": "bool",
          "name": "voterVoted",
          "type": "bool"
        },
        {
          "internalType": "address",
          "name": "voterSelectedCandidate",
          "type": "address"
        }
      ],
      "payable": false,
      "stateMutability": "view",
      "type": "function"
    },
    {
      "constant": true,
      "inputs": [
        {
          "internalType": "string",
          "name": "_electionId",
          "type": "string"
        },
        {
          "internalType": "address",
          "name": "_candidateAddress",
          "type": "address"
        }
      ],
      "name": "showResultCount",
      "outputs": [
        {
          "internalType": "address",
          "name": "candidateAddress",
          "type": "address"
        },
        {
          "internalType": "uint256",
          "name": "candidateVoteCount",
          "type": "uint256"
        }
      ],
      "payable": false,
      "stateMutability": "view",
      "type": "function"
    },
    {
      "constant": false,
      "inputs": [
        {
          "internalType": "string",
          "name": "_electionId",
          "type": "string"
        }
      ],
      "name": "createElection",
      "outputs": [],
      "payable": false,
      "stateMutability": "nonpayable",
      "type": "function"
    },
    {
      "constant": false,
      "inputs": [
        {
          "internalType": "string",
          "name": "_electionId",
          "type": "string"
        },
        {
          "internalType": "address[]",
          "name": "_candidateAddress",
          "type": "address[]"
        }
      ],
      "name": "addCandidate",
      "outputs": [],
      "payable": false,
      "stateMutability": "nonpayable",
      "type": "function"
    },
    {
      "constant": false,
      "inputs": [
        {
          "internalType": "string",
          "name": "_electionId",
          "type": "string"
        },
        {
          "internalType": "address[]",
          "name": "_voterAddress",
          "type": "address[]"
        }
      ],
      "name": "addParticipant",
      "outputs": [],
      "payable": false,
      "stateMutability": "nonpayable",
      "type": "function"
    },
    {
      "constant": false,
      "inputs": [
        {
          "internalType": "string",
          "name": "_electionId",
          "type": "string"
        }
      ],
      "name": "endElection",
      "outputs": [],
      "payable": false,
      "stateMutability": "nonpayable",
      "type": "function"
    },
    {
      "constant": false,
      "inputs": [
        {
          "internalType": "string",
          "name": "_electionId",
          "type": "string"
        },
        {
          "internalType": "address",
          "name": "_candidateAddress",
          "type": "address"
        },
        {
          "internalType": "address",
          "name": "_voterAddress",
          "type": "address"
        }
      ],
      "name": "vote",
      "outputs": [],
      "payable": false,
      "stateMutability": "nonpayable",
      "type": "function"
    }
  ],
  "bytecode": "0x608060405234801561001057600080fd5b50336000806101000a81548173ffffffffffffffffffffffffffffffffffffffff021916908373ffffffffffffffffffffffffffffffffffffffff1602179055506122ac806100606000396000f3fe608060405234801561001057600080fd5b50600436106100935760003560e01c8063c9a05bc011610066578063c9a05bc0146104ec578063ce606ee014610536578063d2ad9b7514610580578063f441b547146106a2578063fe43bc071461080257610093565b806315cf4a5f1461009857806350bc016e1461015357806379c0e203146102a2578063b8e0b6b21461039d575b600080fd5b610151600480360360208110156100ae57600080fd5b81019080803590602001906401000000008111156100cb57600080fd5b8201836020820111156100dd57600080fd5b803590602001918460018302840111640100000000831117156100ff57600080fd5b91908080601f016020809104026020016040519081016040528093929190818152602001838380828437600081840152601f19601f8201169050808301925050505050505091929192905050506108bd565b005b6102a06004803603604081101561016957600080fd5b810190808035906020019064010000000081111561018657600080fd5b82018360208201111561019857600080fd5b803590602001918460018302840111640100000000831117156101ba57600080fd5b91908080601f016020809104026020016040519081016040528093929190818152602001838380828437600081840152601f19601f8201169050808301925050505050505091929192908035906020019064010000000081111561021d57600080fd5b82018360208201111561022f57600080fd5b8035906020019184602083028401116401000000008311171561025157600080fd5b919080806020026020016040519081016040528093929190818152602001838360200280828437600081840152601f19601f820116905080830192505050505050509192919290505050610a70565b005b61039b600480360360608110156102b857600080fd5b81019080803590602001906401000000008111156102d557600080fd5b8201836020820111156102e757600080fd5b8035906020019184600183028401116401000000008311171561030957600080fd5b91908080601f016020809104026020016040519081016040528093929190818152602001838380828437600081840152601f19601f820116905080830192505050505050509192919290803573ffffffffffffffffffffffffffffffffffffffff169060200190929190803573ffffffffffffffffffffffffffffffffffffffff169060200190929190505050611008565b005b6104ea600480360360408110156103b357600080fd5b81019080803590602001906401000000008111156103d057600080fd5b8201836020820111156103e257600080fd5b8035906020019184600183028401116401000000008311171561040457600080fd5b91908080601f016020809104026020016040519081016040528093929190818152602001838380828437600081840152601f19601f8201169050808301925050505050505091929192908035906020019064010000000081111561046757600080fd5b82018360208201111561047957600080fd5b8035906020019184602083028401116401000000008311171561049b57600080fd5b919080806020026020016040519081016040528093929190818152602001838360200280828437600081840152601f19601f820116905080830192505050505050509192919290505050611704565b005b6104f4611a32565b604051808273ffffffffffffffffffffffffffffffffffffffff1673ffffffffffffffffffffffffffffffffffffffff16815260200191505060405180910390f35b61053e611a5b565b604051808273ffffffffffffffffffffffffffffffffffffffff1673ffffffffffffffffffffffffffffffffffffffff16815260200191505060405180910390f35b6106596004803603604081101561059657600080fd5b81019080803590602001906401000000008111156105b357600080fd5b8201836020820111156105c557600080fd5b803590602001918460018302840111640100000000831117156105e757600080fd5b91908080601f016020809104026020016040519081016040528093929190818152602001838380828437600081840152601f19601f820116905080830192505050505050509192919290803573ffffffffffffffffffffffffffffffffffffffff169060200190929190505050611a80565b604051808373ffffffffffffffffffffffffffffffffffffffff1673ffffffffffffffffffffffffffffffffffffffff1681526020018281526020019250505060405180910390f35b61077b600480360360408110156106b857600080fd5b81019080803590602001906401000000008111156106d557600080fd5b8201836020820111156106e757600080fd5b8035906020019184600183028401116401000000008311171561070957600080fd5b91908080601f016020809104026020016040519081016040528093929190818152602001838380828437600081840152601f19601f820116905080830192505050505050509192919290803573ffffffffffffffffffffffffffffffffffffffff169060200190929190505050611c08565b604051808573ffffffffffffffffffffffffffffffffffffffff1673ffffffffffffffffffffffffffffffffffffffff168152602001848152602001831515151581526020018273ffffffffffffffffffffffffffffffffffffffff1673ffffffffffffffffffffffffffffffffffffffff16815260200194505050505060405180910390f35b6108bb6004803603602081101561081857600080fd5b810190808035906020019064010000000081111561083557600080fd5b82018360208201111561084757600080fd5b8035906020019184600183028401116401000000008311171561086957600080fd5b91908080601f016020809104026020016040519081016040528093929190818152602001838380828437600081840152601f19601f820116905080830192505050505050509192919290505050611fc1565b005b806001826040518082805190602001908083835b602083106108f457805182526020820191506020810190506020830392506108d1565b6001836020036101000a0380198251168184511680821785525050505050509050019150509081526020016040518091039020600001908051906020019061093d929190612159565b50336001826040518082805190602001908083835b602083106109755780518252602082019150602081019050602083039250610952565b6001836020036101000a038019825116818451168082178552505050505050905001915050908152602001604051809103902060010160016101000a81548173ffffffffffffffffffffffffffffffffffffffff021916908373ffffffffffffffffffffffffffffffffffffffff160217905550600180826040518082805190602001908083835b60208310610a2057805182526020820191506020810190506020830392506109fd565b6001836020036101000a038019825116818451168082178552505050505050905001915050908152602001604051809103902060010160006101000a81548160ff02191690831515021790555050565b3373ffffffffffffffffffffffffffffffffffffffff166001836040518082805190602001908083835b60208310610abd5780518252602082019150602081019050602083039250610a9a565b6001836020036101000a038019825116818451168082178552505050505050905001915050908152602001604051809103902060010160019054906101000a900473ffffffffffffffffffffffffffffffffffffffff1673ffffffffffffffffffffffffffffffffffffffff1614610b80576040517f08c379a000000000000000000000000000000000000000000000000000000000815260040180806020018281038252602b81526020018061222b602b913960400191505060405180910390fd5b6001826040518082805190602001908083835b60208310610bb65780518252602082019150602081019050602083039250610b93565b6001836020036101000a038019825116818451168082178552505050505050905001915050908152602001604051809103902060010160009054906101000a900460ff16610c6c576040517f08c379a000000000000000000000000000000000000000000000000000000000815260040180806020018281038252601b8152602001807f456c656374696f6e20506572696f64652048617320456e64656421000000000081525060200191505060405180910390fd5b60008090505b81518110156110035760006001846040518082805190602001908083835b60208310610cb35780518252602082019150602081019050602083039250610c90565b6001836020036101000a03801982511681845116808217855250505050505090500191505090815260200160405180910390206003016000848481518110610cf757fe5b602002602001015173ffffffffffffffffffffffffffffffffffffffff1673ffffffffffffffffffffffffffffffffffffffff1681526020019081526020016000206001015411158015610e1b5750600015156001846040518082805190602001908083835b60208310610d805780518252602082019150602081019050602083039250610d5d565b6001836020036101000a03801982511681845116808217855250505050505090500191505090815260200160405180910390206003016000848481518110610dc457fe5b602002602001015173ffffffffffffffffffffffffffffffffffffffff1673ffffffffffffffffffffffffffffffffffffffff16815260200190815260200160002060020160009054906101000a900460ff161515145b15610ff657818181518110610e2c57fe5b60200260200101516001846040518082805190602001908083835b60208310610e6a5780518252602082019150602081019050602083039250610e47565b6001836020036101000a03801982511681845116808217855250505050505090500191505090815260200160405180910390206003016000848481518110610eae57fe5b602002602001015173ffffffffffffffffffffffffffffffffffffffff1673ffffffffffffffffffffffffffffffffffffffff16815260200190815260200160002060000160006101000a81548173ffffffffffffffffffffffffffffffffffffffff021916908373ffffffffffffffffffffffffffffffffffffffff160217905550600180846040518082805190602001908083835b60208310610f685780518252602082019150602081019050602083039250610f45565b6001836020036101000a03801982511681845116808217855250505050505090500191505090815260200160405180910390206003016000848481518110610fac57fe5b602002602001015173ffffffffffffffffffffffffffffffffffffffff1673ffffffffffffffffffffffffffffffffffffffff168152602001908152602001600020600101819055505b8080600101915050610c72565b505050565b6001836040518082805190602001908083835b6020831061103e578051825260208201915060208101905060208303925061101b565b6001836020036101000a038019825116818451168082178552505050505050905001915050908152602001604051809103902060010160009054906101000a900460ff166110f4576040517f08c379a000000000000000000000000000000000000000000000000000000000815260040180806020018281038252601b8152602001807f456c656374696f6e20506572696f64652048617320456e64656421000000000081525060200191505060405180910390fd5b3373ffffffffffffffffffffffffffffffffffffffff168173ffffffffffffffffffffffffffffffffffffffff1614611195576040517f08c379a00000000000000000000000000000000000000000000000000000000081526004018080602001828103825260188152602001807f54686973204973204e6f7420596f75722042616c6c6f7421000000000000000081525060200191505060405180910390fd5b60006001846040518082805190602001908083835b602083106111cd57805182526020820191506020810190506020830392506111aa565b6001836020036101000a038019825116818451168082178552505050505050905001915050908152602001604051809103902060030160008373ffffffffffffffffffffffffffffffffffffffff1673ffffffffffffffffffffffffffffffffffffffff16815260200190815260200160002060010154116112b7576040517f08c379a00000000000000000000000000000000000000000000000000000000081526004018080602001828103825260178152602001807f596f7520417265204e6f7420526567697374657265642100000000000000000081525060200191505060405180910390fd5b600015156001846040518082805190602001908083835b602083106112f157805182526020820191506020810190506020830392506112ce565b6001836020036101000a038019825116818451168082178552505050505050905001915050908152602001604051809103902060030160008373ffffffffffffffffffffffffffffffffffffffff1673ffffffffffffffffffffffffffffffffffffffff16815260200190815260200160002060020160009054906101000a900460ff161515146113ea576040517f08c379a00000000000000000000000000000000000000000000000000000000081526004018080602001828103825260128152602001807f596f7520416c726561647920566f74656421000000000000000000000000000081525060200191505060405180910390fd5b600180846040518082805190602001908083835b6020831061142157805182526020820191506020810190506020830392506113fe565b6001836020036101000a038019825116818451168082178552505050505050905001915050908152602001604051809103902060030160008373ffffffffffffffffffffffffffffffffffffffff1673ffffffffffffffffffffffffffffffffffffffff16815260200190815260200160002060020160006101000a81548160ff021916908315150217905550816001846040518082805190602001908083835b602083106114e557805182526020820191506020810190506020830392506114c2565b6001836020036101000a038019825116818451168082178552505050505050905001915050908152602001604051809103902060030160008373ffffffffffffffffffffffffffffffffffffffff1673ffffffffffffffffffffffffffffffffffffffff16815260200190815260200160002060020160016101000a81548173ffffffffffffffffffffffffffffffffffffffff021916908373ffffffffffffffffffffffffffffffffffffffff1602179055506001836040518082805190602001908083835b602083106115cf57805182526020820191506020810190506020830392506115ac565b6001836020036101000a038019825116818451168082178552505050505050905001915050908152602001604051809103902060030160008273ffffffffffffffffffffffffffffffffffffffff1673ffffffffffffffffffffffffffffffffffffffff168152602001908152602001600020600101546001846040518082805190602001908083835b6020831061167c5780518252602082019150602081019050602083039250611659565b6001836020036101000a038019825116818451168082178552505050505050905001915050908152602001604051809103902060020160008473ffffffffffffffffffffffffffffffffffffffff1673ffffffffffffffffffffffffffffffffffffffff16815260200190815260200160002060010160008282540192505081905550505050565b3373ffffffffffffffffffffffffffffffffffffffff166001836040518082805190602001908083835b60208310611751578051825260208201915060208101905060208303925061172e565b6001836020036101000a038019825116818451168082178552505050505050905001915050908152602001604051809103902060010160019054906101000a900473ffffffffffffffffffffffffffffffffffffffff1673ffffffffffffffffffffffffffffffffffffffff1614611814576040517f08c379a000000000000000000000000000000000000000000000000000000000815260040180806020018281038252602c8152602001806121ff602c913960400191505060405180910390fd5b6001826040518082805190602001908083835b6020831061184a5780518252602082019150602081019050602083039250611827565b6001836020036101000a038019825116818451168082178552505050505050905001915050908152602001604051809103902060010160009054906101000a900460ff16611900576040517f08c379a000000000000000000000000000000000000000000000000000000000815260040180806020018281038252601b8152602001807f456c656374696f6e20506572696f64652048617320456e64656421000000000081525060200191505060405180910390fd5b60008090505b8151811015611a2d5781818151811061191b57fe5b60200260200101516001846040518082805190602001908083835b602083106119595780518252602082019150602081019050602083039250611936565b6001836020036101000a0380198251168184511680821785525050505050509050019150509081526020016040518091039020600201600084848151811061199d57fe5b602002602001015173ffffffffffffffffffffffffffffffffffffffff1673ffffffffffffffffffffffffffffffffffffffff16815260200190815260200160002060000160006101000a81548173ffffffffffffffffffffffffffffffffffffffff021916908373ffffffffffffffffffffffffffffffffffffffff1602179055508080600101915050611906565b505050565b60008060009054906101000a900473ffffffffffffffffffffffffffffffffffffffff16905090565b6000809054906101000a900473ffffffffffffffffffffffffffffffffffffffff1681565b6000806001846040518082805190602001908083835b60208310611ab95780518252602082019150602081019050602083039250611a96565b6001836020036101000a038019825116818451168082178552505050505050905001915050908152602001604051809103902060020160008473ffffffffffffffffffffffffffffffffffffffff1673ffffffffffffffffffffffffffffffffffffffff16815260200190815260200160002060000160009054906101000a900473ffffffffffffffffffffffffffffffffffffffff166001856040518082805190602001908083835b60208310611b865780518252602082019150602081019050602083039250611b63565b6001836020036101000a038019825116818451168082178552505050505050905001915050908152602001604051809103902060020160008573ffffffffffffffffffffffffffffffffffffffff1673ffffffffffffffffffffffffffffffffffffffff16815260200190815260200160002060010154915091509250929050565b6000806000803373ffffffffffffffffffffffffffffffffffffffff168573ffffffffffffffffffffffffffffffffffffffff1614611caf576040517f08c379a00000000000000000000000000000000000000000000000000000000081526004018080602001828103825260188152602001807f54686973204973204e6f7420596f75722042616c6c6f7421000000000000000081525060200191505060405180910390fd5b6001866040518082805190602001908083835b60208310611ce55780518252602082019150602081019050602083039250611cc2565b6001836020036101000a038019825116818451168082178552505050505050905001915050908152602001604051809103902060030160008673ffffffffffffffffffffffffffffffffffffffff1673ffffffffffffffffffffffffffffffffffffffff16815260200190815260200160002060000160009054906101000a900473ffffffffffffffffffffffffffffffffffffffff166001876040518082805190602001908083835b60208310611db25780518252602082019150602081019050602083039250611d8f565b6001836020036101000a038019825116818451168082178552505050505050905001915050908152602001604051809103902060030160008773ffffffffffffffffffffffffffffffffffffffff1673ffffffffffffffffffffffffffffffffffffffff168152602001908152602001600020600101546001886040518082805190602001908083835b60208310611e5f5780518252602082019150602081019050602083039250611e3c565b6001836020036101000a038019825116818451168082178552505050505050905001915050908152602001604051809103902060030160008873ffffffffffffffffffffffffffffffffffffffff1673ffffffffffffffffffffffffffffffffffffffff16815260200190815260200160002060020160009054906101000a900460ff166001896040518082805190602001908083835b60208310611f195780518252602082019150602081019050602083039250611ef6565b6001836020036101000a038019825116818451168082178552505050505050905001915050908152602001604051809103902060030160008973ffffffffffffffffffffffffffffffffffffffff1673ffffffffffffffffffffffffffffffffffffffff16815260200190815260200160002060020160019054906101000a900473ffffffffffffffffffffffffffffffffffffffff16935093509350935092959194509250565b3373ffffffffffffffffffffffffffffffffffffffff166001826040518082805190602001908083835b6020831061200e5780518252602082019150602081019050602083039250611feb565b6001836020036101000a038019825116818451168082178552505050505050905001915050908152602001604051809103902060010160019054906101000a900473ffffffffffffffffffffffffffffffffffffffff1673ffffffffffffffffffffffffffffffffffffffff16146120d1576040517f08c379a00000000000000000000000000000000000000000000000000000000081526004018080602001828103825260228152602001806122566022913960400191505060405180910390fd5b60006001826040518082805190602001908083835b6020831061210957805182526020820191506020810190506020830392506120e6565b6001836020036101000a038019825116818451168082178552505050505050905001915050908152602001604051809103902060010160006101000a81548160ff02191690831515021790555050565b828054600181600116156101000203166002900490600052602060002090601f016020900481019282601f1061219a57805160ff19168380011785556121c8565b828001600101855582156121c8579182015b828111156121c75782518255916020019190600101906121ac565b5b5090506121d591906121d9565b5090565b6121fb91905b808211156121f75760008160009055506001016121df565b5090565b9056fe4f6e6c7920456c656374696f6e2043726561746f722043616e20416464204e65772043616e646964617465214f6e6c7920456c656374696f6e2043726561746f722043616e20416464205061727469636970616e7473214f6e6c7920456c656374696f6e2043726561746f722043616e20446f205468697321a265627a7a72315820af5c6320ff1b75df7ec7c47a7303d448747d5748217b641e2afc1c47ea32323d64736f6c63430005100032",
  "source": "pragma solidity >=0.4.21 <0.7.0;\r\n\r\n/// @author Basilius Bias Astho Christyono\r\ncontract Ballot {\r\n\r\n  struct Voter {\r\n    address voterAddress;\r\n    uint voterWeight;\r\n    bool voterVoted;\r\n    address voterSelectedCandidate;\r\n  }\r\n\r\n  struct Candidate {\r\n    address candidateAddress;\r\n    uint candidateVoteCount;\r\n  }\r\n\r\n  struct Election {\r\n    string electionId;\r\n    bool electionIsActive;\r\n    address electionCreator;\r\n    mapping(address => Candidate) electionCandidates;\r\n    mapping(address => Voter) electionParticipants;\r\n  }\r\n\r\n  address public contractOwner;\r\n  mapping(string => Election) elections;\r\n\r\n  constructor() public {\r\n    contractOwner = msg.sender;\r\n  }\r\n\r\n  /* Getter */\r\n\r\n  /// View Contract Owner\r\n  function viewContractOwner() public view returns (address) {\r\n    return contractOwner;\r\n  }\r\n\r\n  /// Registered User Show Their Voted Candidate Secretly\r\n  function showMyVote(string memory _electionId, address _voterAddress) public view returns (\r\n    address voterAddress, uint voterWeight, bool voterVoted, address voterSelectedCandidate\r\n  ) {\r\n    require(_voterAddress == msg.sender, \"This Is Not Your Ballot!\");\r\n    return (\r\n      elections[_electionId].electionParticipants[_voterAddress].voterAddress,\r\n      elections[_electionId].electionParticipants[_voterAddress].voterWeight,\r\n      elections[_electionId].electionParticipants[_voterAddress].voterVoted,\r\n      elections[_electionId].electionParticipants[_voterAddress].voterSelectedCandidate\r\n    );\r\n  }\r\n\r\n  /// View Current Candidate Voted Count\r\n  function showResultCount(string memory _electionId, address _candidateAddress) public view returns (\r\n    address candidateAddress, uint candidateVoteCount\r\n  ) {\r\n    return (\r\n      elections[_electionId].electionCandidates[_candidateAddress].candidateAddress,\r\n      elections[_electionId].electionCandidates[_candidateAddress].candidateVoteCount\r\n    );\r\n  }\r\n\r\n  /* Setter */\r\n\r\n  /// Admin Create New Election\r\n  function createElection(string memory _electionId) public {\r\n    // require(contractOwner == msg.sender, \"Only Contract Owner Can Create Election!\");\r\n    elections[_electionId].electionId = _electionId;\r\n    elections[_electionId].electionCreator = msg.sender;\r\n    elections[_electionId].electionIsActive = true;\r\n  }\r\n\r\n  /// Admin Add New Some Candidate In Specific Election\r\n  function addCandidate(string memory _electionId, address[] memory _candidateAddress) public {\r\n    require(elections[_electionId].electionCreator == msg.sender, \"Only Election Creator Can Add New Candidate!\");\r\n    require(elections[_electionId].electionIsActive, \"Election Periode Has Ended!\");\r\n    for (uint i = 0; i < _candidateAddress.length; i++) {\r\n      elections[_electionId].electionCandidates[_candidateAddress[i]].candidateAddress = _candidateAddress[i];\r\n    }\r\n  }\r\n\r\n  // Admin Add New Voter Participant In Specific Election And Give 1 Ballot\r\n  function addParticipant(string memory _electionId, address[] memory _voterAddress) public {\r\n    require(elections[_electionId].electionCreator == msg.sender, \"Only Election Creator Can Add Participants!\");\r\n    require(elections[_electionId].electionIsActive, \"Election Periode Has Ended!\");\r\n    for (uint i = 0; i < _voterAddress.length; i++) {\r\n      if (\r\n        elections[_electionId].electionParticipants[_voterAddress[i]].voterWeight <= 0 &&\r\n        elections[_electionId].electionParticipants[_voterAddress[i]].voterVoted == false\r\n      ) {\r\n        elections[_electionId].electionParticipants[_voterAddress[i]].voterAddress = _voterAddress[i];\r\n        elections[_electionId].electionParticipants[_voterAddress[i]].voterWeight = 1;\r\n      }\r\n    }\r\n  }\r\n\r\n  /// Admin Stop Election Periode\r\n  function endElection(string memory _electionId) public {\r\n    require(elections[_electionId].electionCreator == msg.sender, \"Only Election Creator Can Do This!\");\r\n    elections[_electionId].electionIsActive = false;\r\n  }\r\n\r\n  /// Registered User Participant Voting Some Candidate\r\n  function vote(string memory _electionId, address _candidateAddress, address _voterAddress) public {\r\n    require(elections[_electionId].electionIsActive, \"Election Periode Has Ended!\");\r\n    require(_voterAddress == msg.sender, \"This Is Not Your Ballot!\");\r\n    require(elections[_electionId].electionParticipants[_voterAddress].voterWeight > 0, \"You Are Not Registered!\");\r\n    require(elections[_electionId].electionParticipants[_voterAddress].voterVoted == false, \"You Already Voted!\");\r\n    elections[_electionId].electionParticipants[_voterAddress].voterVoted = true;\r\n    elections[_electionId].electionParticipants[_voterAddress].voterSelectedCandidate = _candidateAddress;\r\n    elections[_electionId].electionCandidates[_candidateAddress].candidateVoteCount += elections[_electionId].electionParticipants[_voterAddress].voterWeight;\r\n  }\r\n\r\n}\r\n",
  "sourcePath": "D:\\Skripsi\\blockchain-evoting\\contract\\contracts\\Ballot.sol",
  "compiler": {
    "name": "solc",
    "version": "0.5.16+commit.9c3226ce.Emscripten.clang"
  },
  "schemaVersion": "3.0.23",
  "updatedAt": "2020-05-02T09:14:45.348Z",
  "devdoc": {
    "author": "Basilius Bias Astho Christyono",
    "methods": {}
  },
  "userdoc": {
    "methods": {
      "addCandidate(string,address[])": {
        "notice": "Admin Add New Some Candidate In Specific Election"
      },
      "createElection(string)": {
        "notice": "Admin Create New Election"
      },
      "endElection(string)": {
        "notice": "Admin Stop Election Periode"
      },
      "showMyVote(string,address)": {
        "notice": "Registered User Show Their Voted Candidate Secretly"
      },
      "showResultCount(string,address)": {
        "notice": "View Current Candidate Voted Count"
      },
      "viewContractOwner()": {
        "notice": "View Contract Owner"
      },
      "vote(string,address,address)": {
        "notice": "Registered User Participant Voting Some Candidate"
      }
    }
  }
}